:1000000012C02CC02BC02AC029C028C027C026C0BF
:1000100025C024C023C022C021C020C01FC01EC0D4
:100020001DC01CC01BC011241FBECFE5D4E0DEBF25
:10003000CDBF12E0A0E6B0E0E8E6F8E102C005902E
:100040000D92A43AB107D9F713E0A4EAB2E001C0D7
:100050001D92A73AB107E1F702D004CCD1CF0F939C
:100060001F931AD7809160009091610066E577E058
:1000700068D0809160009091610065E478E05BD089
:10008000809160009091610065E977E04ED0009129
:1000900060001091610014D7682F772767FD709575
:1000A000C8015AD3F4CFCF93DF93EC0140E050E086
:1000B00020E030E002C02F5F3F4FFE01E20FF31F50
:1000C0008289882321F426173707ACF32AC0261724
:1000D00037073CF5FA01EE0FFF1FEC0FFD1FE15251
:1000E000FF4F2E5E3F4FDE01A20FB31F2251304063
:1000F000B183A0834F5F5F4F483051051CF04FEF35
:100100005FEF0FC0FD0102C02F5F3F4F808188234A
:1001100029F0319626173707BCF303C02617370797
:1001200064F2CA01DF91CF910895FC01EF50FF4FB7
:10013000718360830895FC01E151FF4F71836083F7
:100140000895CF93DF93FC014296DC0189ECED0129
:1001500019928A95E9F78AE0EF0119928A95E9F7F1
:10016000138612861586148617861686E552FF4F6B
:100170001192119211821082729611921192118233
:100180001082E15FF0408091B4009091B500918BB6
:10019000808BED50FF4F71836083DF91CF91089585
:1001A000EF92FF920F931F93DF93CF93CDB7DEB7FC
:1001B00060970FB6F894DEBF0FBECDBF8C018DB730
:1001C0009EB70A970FB6F8949EBF0FBE8DBFEDB7CE
:1001D000FEB731967E010894E11CF11CADB7BEB7A5
:1001E0001296FC92EE92119780E190E093838283C5
:1001F00082E690E09583848382ED90E09783868306
:1002000087E090E0918780875AD88DB79EB70A968D
:100210000FB6F8949EBF0FBE8DBF0D501F4FD80173
:10022000ED91FC91C701099560960FB6F894DEBF79
:100230000FBECDBFCF91DF911F910F91FF90EF9037
:1002400008950F931F93DF93CF93CDB7DEB76097D9
:100250000FB6F894DEBF0FBECDBF8C01DE01119644
:1002600080E1FD0111928A95E9F71616170614F53B
:100270008DB79EB708970FB6F8949EBF0FBE8DBF7F
:100280002DB73EB72F5F3F4FEDB7FEB7B283A183C7
:1002900080E190E0D90113969C938E9312978DE69E
:1002A00090E015969C938E93149717967C936E937B
:1002B000169728C06115710571F18DB79EB7089723
:1002C0000FB6F8949EBF0FBE8DBF2DB73EB72F5F00
:1002D0003F4FEDB7FEB7B283A18380E190E0D90133
:1002E00013969C938E93129783E790E015969C93B8
:1002F0008E93149788279927861B970B17969C93A4
:100300008E931697DCD7EDB7FEB738960FB6F894F4
:10031000FEBF0FBEEDBF0D501F4FD801ED91FC91F8
:10032000CE010196099560960FB6F894DEBF0FBE18
:10033000CDBFCF91DF911F910F9108953F924F92C2
:100340005F926F927F928F929F92AF92BF92CF9265
:10035000DF92EF92FF920F931F93DF93CF9300D022
:10036000CDB7DEB75C018B012A0133EFE32EF12C10
:10037000E80EF91ED701ED91FC9189E790E009950F
:1003800019821A820E5E1F4F6501C00ED11E0251E6
:1003900010402BED822E912C8A0C9B1C90E2392E62
:1003A0003E010894611C711C10C0F6018081898394
:1003B000882309F43982D701ED91FC91C301099595
:1003C0000F5F1F4F0894C11CD11CF40180819181E3
:1003D0000817190754F3C501E3DEC501B20131DF87
:1003E0000F900F90CF91DF911F910F91FF90EF90A1
:1003F000DF90CF90BF90AF909F908F907F906F9045
:100400005F904F903F900895CF92DF92EF92FF92CE
:100410000F931F93CF93DF937C018B01BC016E5E22
:100420007F4FDC011A96CD91DC911B979E0140E035
:1004300050E00EC02F5F3F4F992787FD9095280F02
:10044000391F2A30310514F02A5030404F5F5F4F7A
:10045000F701E20FF31F8081882361F7F701A6857A
:10046000B785012B99F54A175B070CF4B5C09A01C3
:1004700007C02196CE0FDF1FCA30D1050CF02A9796
:10048000215030406701CC0EDD1EF601408144232F
:1004900009F4A2C0E42FFF27E7FDF0952A173B07D8
:1004A00041F789C009E010E00C1B1D0B2E0D3F1D0C
:1004B000CB01B901A801BED60E5E1F4FA701400FA8
:1004C000511F02511040D6012C9149C01A161B062B
:1004D0000CF082C01197F701B787A687C285D38534
:1004E0009A010DC02196842F992787FD9095C80FFA
:1004F000D91FCA30D1050CF02A9721503040F7019E
:10050000EC0FFD1F4081442319F02A173B0751F7D8
:10051000E42FFF27E7FDF095CF018C0F9D1F9E0173
:100520002F5F3F4F0A9734F42E0D3F1DCB01B901C9
:10053000AF011DC009E010E00C1B1D0B2E0D3F1D6F
:10054000CB01B901A80176D60E5E1F4FA701400F5F
:10055000511F02511040F701EC0FFD1F208133277E
:1005600027FD3095201B310BCA01B701A90162D6C6
:10057000CE0DDF1D8881992787FD9095009761F149
:100580002BED30E0E20EF31ED7018D939C93E5E254
:10059000FFEFEE0EFF1E870103521F4FD8018D9310
:1005A0009C93C701FDDDF80140815181C70160E0E6
:1005B00070E0C4DE11C02F5F3F4FD7011F963C9300
:1005C0002E931E97CF018C0F9D1F9E012F5F3F4FD3
:1005D0000A970CF4A9CF66CFDF91CF911F910F91AD
:1005E000FF90EF90DF90CF900895EF92FF920F93DE
:1005F0001F93CF93DF93EC014DEDE42EF12CE80E29
:10060000F91EF701808191811816190674F5CD50F5
:10061000DF4FE881F981C35FD0408DE790E0099515
:10062000F70180819181BC016E5E7F4F6C0F7D1F51
:100630008E0105521F4FF801408151814F5F5F4F7E
:10064000481B590B41968C0F9D1FFDD5F7018081EA
:100650009181019791838083F80180819181C80FF6
:10066000D91F1A8A019791838083DF91CF911F91BF
:100670000F91FF90EF900895CF92DF92EF92FF924B
:100680000F931F93CF93DF93EC016B017A01C55257
:10069000DF4F48815981CB5DD040C701840F951F42
:1006A000893C91051CF020E030E04CC08E010352E3
:1006B0001F4FF801808191819701280F391F2E5E0D
:1006C0003F4FBC016E5E7F4F6C0F7D1F481B590B67
:1006D000CE01820F931FB7D540E050E0B80119C09A
:1006E000DE01A40FB51FFB0120813181A20FB31FD2
:1006F000F601E40FF51F808152968C93FA01E20F08
:10070000F31FEC0FFD1F8289803209F4128A4F5FBC
:100710005F4F4E155F0524F3F801808191818E0DA6
:100720009F1D91838083DE01A552BF4FED91FC9107
:100730001197EE0DFF1DED93FC93EC0FFD1F128A38
:1007400021E030E0C901DF91CF911F910F91FF901F
:10075000EF90DF90CF9008954F925F926F927F92CB
:100760008F929F92AF92BF92CF92DF92EF92FF92C1
:100770000F931F93DF93CF9300D0CDB7DEB76C01FB
:100780007A8369838091A4029091A502892B09F450
:100790008DC029812B3519F481E090E050C0809103
:1007A000A6029091A7028130910509F053C021342F
:1007B00021F4C60160E070E005C0223429F4C601CE
:1007C00061E070E021DE40C32334F9F48601035276
:1007D0001F4F2BED30E0C20ED31ED8012D913C915E
:1007E000F6018081918145E25FEFC40ED51E281786
:1007F00039070CF029C3C60161E070E022DDD801A1
:100800008D919C91119701964EC02434A1F48601DC
:1008100003521F4FF80180819181181619060CF0C0
:1008200013C3C6016FEF7FEF0CDDD8018D919C9152
:100830001197019738C0273339F482E090E0909304
:10084000A7028093A60215C3283309F012C383E0E0
:1008500090E0F5CF2E3709F00CC38230910551F4AA
:10086000C6019EDCEDEDF0E0CE0EDF1ED6011D923E
:100870001C92EAC2039709F0FCC2860105521F4F81
:100880008DEDE82EF12CEC0CFD1CF80160817181DE
:10089000D7018D919C91681B790BC601D2DCF801C0
:1008A00080819181D7018D939C93CEC289819A8159
:1008B0008A30910509F440C08B309105ECF4853005
:1008C000910509F428C2863091054CF481309105D8
:1008D00009F43AC28230910509F08DC25EC28830B7
:1008E000910509F478C2893091050CF007C1863072
:1008F000910509F080C232C28031910509F462C2CB
:100900008131910564F48D309105B1F08E309105FF
:1009100009F45CC28B30910509F06DC2E7C18B31DF
:10092000910509F4CCC18F37910509F454C2853182
:10093000910509F060C2CDC1E3EFF0E0CE0EDF1EFD
:10094000D601ED91FC9185E890E00995E8EEFFEF86
:10095000CE0EDF1ED601ED90FC90E5E2FFEFCE0E4D
:10096000DF1E1E141F040CF06AC0D601529605C08B
:100970002A503040F60133872287F601428553859D
:10098000E40FF51F6081662309F471C2F601248526
:100990003585241735071CF0CA01099602C0CA0123
:1009A0000197821B930BE816F9060CF052C2F60170
:1009B0008485958509E010E0081B190B0196E01667
:1009C000F1063CF49601280F391FC901BD01A701AA
:1009D00012C09601280F391FC901BD01A8012AD4F0
:1009E000F701E01BF10B98012E5E3F4F2C0D3D1DD2
:1009F000C601B901AF011ED4D6011C968D919C9100
:100A00001D97F601E80FF91FE082A701480F591F53
:100A1000CA010196F601958784870A9724F0495008
:100A2000504055874487D6011C96ED91FC911D9747
:100A3000EC0DFD1D10821F961C921E921E97EBED71
:100A4000F0E0CE0EDF1ED6016D917C91E5E2FFEF66
:100A5000CE0EDF1EC60127DBFFEF8F3F9F0779F425
:100A600023EF30E0C20ED31ED601ED91FC912DE0B4
:100A70003FEFC20ED31E88E890E0099514C0181607
:100A800019068CF44FEE50E0C40ED51ED601ED9140
:100A9000FC9121E13FEFC20ED31E309721F0B60149
:100AA00061527F4F099543EF50E0C40ED51ED60129
:100AB000ED91FC912DE03FEFC20ED31ED601509672
:100AC0008D919C9151970995EBEDF0E0CE0EDF1ED4
:100AD000D6011D921D926D011D921C92E3E2FFEF63
:100AE000CE0EDF1EC6014296FC0189ECDF011D928D
:100AF0008A95E9F7F60117861686BBC121EF30E02B
:100B0000C20ED31ED6018D919C91EFE0FFEFCE0E69
:100B1000DF1E892B09F4ADC1860103521F4FD80196
:100B20006D917C91C601BFDA2C01D801ED91FC9149
:100B3000EC0DFD1D8189882371F4F201EE0FFF1F7A
:100B4000EC0DFD1DE152FF4F80EA90E09183808320
:100B50000894411C511CB60161527F4FE1EFF0E057
:100B6000CE0EDF1ED601ED91FC912FE03FEFC20EBD
:100B7000D31EC20109955C01DC012D913C911197B6
:100B80002115310509F475C112968D919C91139729
:100B9000892B29F000E010E021E030E02DC0D901E0
:100BA0000D900020E9F78D0101501040021B130B3E
:100BB0004FC0E00FF11F9081F9013197EE0FFF1F39
:100BC000EA0DFB1D0190F081E02DE00FF11F808107
:100BD000981711F4992371F4E3EFEE2EF12CEC0C3D
:100BE000FD1CD701ED91FC9185E890E00995350158
:100BF000470119C00F5F1F4FF901EE0FFF1FEA0DEC
:100C0000FB1D0190F081E02D309799F62F5F3F4F4B
:100C1000F3CFD401ED91FC910995D401ED91FC91B4
:100C200081EA90E00995F301819191913F0100974C
:100C300081F7D701ED91FC9185E890E00995D70106
:100C4000ED91FC91D60150968D919C91519709950B
:100C50000115110531F1F2013197EE0FFF1FEC0D77
:100C6000FD1DE152FF4FA081B181FD0101900020E7
:100C7000E9F73197EA1BFB0BD5016D917C916E0F63
:100C80007F1F0E1B1F0BC601A801F6DCF501828138
:100C90009381892B31F4C60161EA70E041E050E0B4
:100CA000EBDCC6017DDA2DED30E0C20ED31ED6019D
:100CB0004D915C91E3E2FFEFCE0EDF1E13C081E0A9
:100CC00090E09093A5028093A402D3C0C6018DDC6E
:100CD00003C0860103521F4FD8014D915C91141639
:100CE0001506A4F3C60160E070E0ACC0E3EFF0E0ED
:100CF000CE0EDF1ED601ED91FC9189E790E00995BB
:100D0000EAEEFFEFCE0EDF1ED6018D919C91F6012B
:100D100092938293AEC0860105521F4F5DEDE52E82
:100D2000F12CEC0CFD1CD8016D917C91F7018081B8
:100D30009181681B790BC60184DAD8018D919C9151
:100D4000F7019183808395C0C6012ADA2DED30E04A
:100D5000C20ED31ED6011D921C928BC08601035277
:100D60001F4FEBEDF0E0CE0EDF1ED8012D913C9130
:100D7000F6018081918145E25FEFC40ED51E2817F0
:100D800039070CF076C0C60161E070E05ADAD8018C
:100D90008D919C911197019612C0860103521F4FAD
:100DA000F80180819181892B09F463C0C6016FEF3E
:100DB0007FEF47DAD8018D919C91119701978D9320
:100DC0009C9357C0C60160E070E003C0C60161E0BB
:100DD00070E01ADB4EC0C60108DCEDEDF0E0CE0E8F
:100DE000DF1ED6014D915C91E3E2FFEFCE0EDF1ED8
:100DF000C601BA0127C0809769F42BED30E0C20E1E
:100E0000D31ED6018D919C91E5E2FFEFCE0EDF1E41
:100E1000892B79F1C601BE016F5F7F4F41E050E041
:100E20002BDC892B31F12DED30E0C20ED31ED60123
:100E30004D915C91E3E2FFEFCE0EDF1EBA016150EF
:100E40007040C6017BDA15C01092A5021092A40270
:100E500010C09A012F5F3F4F862F992787FD9095ED
:100E6000280F391F2A3031050CF082CD83CDE08266
:100E70009ECD0F900F90CF91DF911F910F91FF901A
:100E8000EF90DF90CF90BF90AF909F908F907F902A
:100E90006F905F904F90089588E089B986E880BD93
:100EA00088E18AB98FEF87BB81BB0895FC0104C03C
:100EB0005D9BFECF8CB9319680818823C9F7089558
:100EC0005F9BFECF8CB1089586EB90E0EFDF8DED58
:100ED00090E0ECDF83E091E0E9DF86E591E0E6DF9A
:100EE0000895FC01208182B388B3281739F4663055
:100EF000710524F089EA91E0D9DF0895452B51F07E
:100F000081E090E002C0880F991F6A95E2F7282BD4
:100F10002083089581E090E002C0880F991F6A95B0
:100F2000E2F78095822380830895CF92DF92EF923B
:100F3000FF920F931F93CF93DF93EC018B011092DD
:100F40009E0310929D038130910521F5FB01C08025
:100F5000D18057E9E52E52E0F52EC0E0D0E0F70150
:100F600000811181C801B60188D18017910741F431
:100F7000FE01EE0FFF1FE356FC4F91838083219605
:100F800082E090E0E80EF91E9FE9E91692E0F9068A
:100F900031F76AC0823091050CF444C0FB01E08057
:100FA000F180C7016DEC71E05FD1009759F57E01CA
:100FB0000894E108F108EE0CFF1CE00EF11E009110
:100FC0009F021091A002F70160817181C80155D183
:100FD0008017910719F0C0E0D0E006C090939E03FF
:100FE00080939D03C1E0D0E00091A1021091A20284
:100FF000F70160817181C80140D19C018017910780
:1010000099F507C0C70166ED71E02ED1009779F21E
:1010100009C0FE01EE0FFF1FE356FC4F3183208312
:10102000219622C0809197029091980290939E03FE
:1010300080939D038091990290919A029093A003CE
:1010400080939F0380919B0290919C029093A203B6
:101050008093A10380919D0290919E029093A4039E
:101060008093A303C4E0D0E0CC0FDD1FC356DC4F58
:10107000198218828DE993E0DF91CF911F910F9132
:10108000FF90EF90DF90CF900895AF92BF92CF92F4
:10109000DF92EF92FF920F931F93CF93DF935C0148
:1010A0006B017B01C0E0D0E096C0F70100811181A7
:1010B000C80161EE71E0D8D0009789F486EE91E026
:1010C000F5DE80EF91E0F2DE84EF91E0EFDE88E084
:1010D00092E0ECDE8CE092E0E9DEF6DE77C0C8015B
:1010E0006FE072E0C1D0009731F485E192E0DEDE7E
:1010F0008AE192E06AC0C8016DEC71E0B5D000975A
:1011000039F0C80166ED71E0AFD0009709F054C026
:101110008E010F5F1F4F0A151B050CF04AC0CC0F44
:10112000DD1FCC0DDD1D8881998166ED71E09CD0BD
:10113000F82EE92EF801EE0FFF1FEC0DFD1DC0810A
:10114000D181CE016EE172E08FD00097C1F0CE0167
:1011500065E272E089D0009719F4C8E3D0E011C0CD
:101160008CE292E0A3DE85E292E0A0DE83E392E0EF
:101170009DDE8EE192E09ADE8BE392E016C0C2E340
:10118000D0E0F8013196EA15FB056CF4EE0FFF1F75
:10119000EC0DFD1D8081918130D0BC01CE014F2D21
:1011A0005E2D9FDE1CC087E492E080DE21E030E00F
:1011B00018C085E692E0F9CF8DE792E077DEF7017F
:1011C0008081918173DE88E892E070DE219682E072
:1011D00090E0E80EF91ECA15DB050CF466CF20E09E
:1011E00030E0C901DF91CF911F910F91FF90EF90F7
:1011F000DF90CF90BF90AF900895FC01882799278A
:10120000E89421912032E9F3293010F02E30C8F310
:101210002B3239F02D3231F4689403C048D0820F5C
:10122000911D219120532A30C8F31EF49095819589
:101230009F4F0895FB01DC0102C001900D924150C7
:101240005040D8F708956817790768F4FB01DC016E
:10125000E40FF51FA40FB51F02C002900E9241507B
:101260005040D8F70895E6CFFB01DC018D91019045
:1012700080190110D9F3990B0895FB015191552361
:10128000A9F0BF01DC014D9145174111E1F759F477
:10129000CD010190002049F04D9140154111C9F355
:1012A000FB014111EFCF81E090E0019708957AE0D2
:1012B000979F902D879F802D910D11240895AEE06A
:1012C000B0E0E4E6F9E0A5C20D891E898F89988D0A
:1012D00097FF02C080E090E801979E838D831A8378
:1012E000098386E08C839E01255E3F4FCE010196E7
:1012F000698D7A8DA90111D04D815E8157FD0AC09B
:101300002F813885421753070CF49A01020F131FDF
:10131000F80110822E96E4E098C2ABE0B0E0E2E97A
:10132000F9E069C23C012B015A01FC0117821682C7
:10133000838181FD03C06FEF7FEFB9C19AE0892EF1
:101340001E010894211C311CF3012381F20123FDAD
:10135000859123FF81912F01882309F4A5C185324E
:1013600039F423FD859123FF81912F01853221F4EA
:1013700090E0B301B6D1E8CF982FFF24EE24992452
:10138000FFE1FF15D0F09B3269F09C3228F49032D7
:1013900059F0933291F40EC09D3249F0903369F4C4
:1013A00041E024C052E0F52A84E0F82A28C098E001
:1013B000F92A25C0E0E1FE2A22C0F7FC29C0892FC6
:1013C00080538A3070F4F6FE05C0989C902C11244E
:1013D000980E15C0E89CE02C1124E80EF0E2FF2ADC
:1013E0000EC09E3229F4F6FC5FC140E4F42A07C027
:1013F0009C3619F450E8F52A02C0983649F4F201F7
:1014000023FD959123FF91912F01992309F0B8CFE6
:10141000892F8554833018F08052833038F444E0AB
:1014200050E0A40EB51E5FE359830FC0933631F030
:10143000933779F0933509F052C01FC0F5018081D0
:10144000898342E050E0A40EB51E610101E010E086
:1014500011C0F501C080D180F6FC03C06FEF7FEFB3
:1014600002C0692D70E042E050E0A40EB51EC60136
:101470002DD18C015FE7F52213C0F501C080D1802A
:10148000F6FC03C06FEF7FEF02C0692D70E042E011
:1014900050E0A40EB51EC6010ED18C0150E8F52A0D
:1014A000F3FE06C018C080E290E0B3011AD1EA94BE
:1014B0008E2D90E008171907B0F30DC0F601F7FC68
:1014C0008591F7FE81916F0190E0B3010AD1E1109F
:1014D000EA94015010400115110581F7E2C09436DD
:1014E00011F0993661F5F7FE08C0F50120813181D0
:1014F0004281538184E090E00AC0F50180819181AE
:101500009C01442737FD4095542F82E090E0A80EBF
:10151000B91E9FE6F92257FF09C0509540953095B6
:1015200021953F4F4F4F5F4FE0E8FE2ACA01B901B6
:10153000A1012AE030E001D1D82ED2183FC0953762
:1015400029F41F2D1F7E2AE030E01DC01F2D197FBA
:101550009F3661F0903720F4983509F0A5C00FC090
:10156000903739F0983709F09FC004C028E030E088
:101570000AC0106114FD146020E130E004C014FDC5
:10158000166020E132E017FF08C0F501608171812B
:101590008281938144E050E008C0F501808191810F
:1015A000BC0180E090E042E050E0A40EB51EA10135
:1015B000C4D0D82ED2188FE7F82EF122F6FE0BC039
:1015C0005EEFF522D91438F4F4FE07C0F2FC05C032
:1015D0008FEEF82202C01D2D01C0192DF4FE0DC0A2
:1015E000FE01ED0DF11D8081803319F499EEF92291
:1015F00008C01F5FF2FE05C003C08F2D867809F07A
:101600001F5F0F2DF3FC13C0F0FE0EC01E1510F06F
:101610009D2C0AC09D2C9E0C911A1E2D05C080E2A7
:1016200090E0B3015ED01F5F1E15C8F304C01E1505
:1016300010F4E11A01C0EE2404FF0EC080E390E034
:10164000B3014FD002FF1BC001FD03C088E790E04B
:101650000EC088E590E00BC0802F867881F001FFF6
:1016600002C08BE201C080E2F7FC8DE290E0B301A2
:1016700038D005C080E390E0B30133D09A94D914F8
:10168000C8F3DA94F101ED0DF11D808190E0B30112
:1016900028D0DD20B1F705C080E290E0B30121D071
:1016A000EA94EE20C9F750CEF30166817781CB0131
:1016B0002B96E2E1BCC0FC01059061507040011026
:1016C000D8F7809590958E0F9F1F0895FC0161506B
:1016D000704001900110D8F7809590958E0F9F1F54
:1016E00008950F931F93CF93DF938C01EB018B81B0
:1016F00081FF1BC082FF0DC02E813F818C819D81A7
:101700002817390764F4E881F9810193F983E883A4
:1017100006C0E885F985802F0995892B31F48E81E3
:101720009F8101969F838E8302C00FEF1FEFC80138
:10173000DF91CF911F910F910895FA01AA272830C8
:1017400051F1203181F1E8946F936E7F6E5F7F4F8E
:101750008F4F9F4FAF4FB1E03ED0B4E03CD0670F0A
:10176000781F891F9A1FA11D680F791F8A1F911D5D
:10177000A11D6A0F711D811D911DA11D20D009F4AD
:1017800068943F912AE0269F11243019305D3193EF
:10179000DEF6CF010895462F4770405D4193B3E0D8
:1017A0000FD0C9F7F6CF462F4F70405D4A3318F07F
:1017B000495D31FD4052419302D0A9F7EACFB4E030
:1017C000A6959795879577956795BA95C9F70097E8
:1017D0006105710508959B01AC010A2E0694579589
:1017E000479537952795BA95C9F7620F731F841FE0
:1017F000951FA01D08952F923F924F925F926F9276
:101800007F928F929F92AF92BF92CF92DF92EF9290
:10181000FF920F931F93CF93DF93CDB7DEB7CA1B11
:10182000DB0B0FB6F894DEBF0FBECDBF09942A883C
:10183000398848885F846E847D848C849B84AA84E4
:10184000B984C884DF80EE80FD800C811B81AA8171
:10185000B981CE0FD11D0FB6F894DEBF0FBECDBF3C
:08186000ED010895F894FFCF9B
:10186800A8021B5B2564441B5B256443001B5B25A6
:101878006443001B5B256444001B5B4B001B5B44FB
:10188800201B5B44000A0D004552524F523A746FB8
:101898006B656E7320746F6F206D7563680A0D0039
:1018A8000020001B5B33326D4952696E203E1B5B82
:1018B800306D2000A30055736520544142206B65AC
:1018C8007920666F7220636F6D706C6574696F6ED6
:1018D8000A0D436F6D6D616E643A0A0D0009636C01
:1018E8006561722020202020202020202020202018
:1018F80020202D20636C6561722073637265656EAC
:101908000A0D00097365745F706F727420706F72CE
:10191800742070696E2020202D207365742031207A
:10192800706F72745B70696E5D2076616C75652C82
:1019380020737570706F7274206F6E6C79202770C9
:101948006F72745F622720616E642027706F7274F3
:101958005F64270A0D0009636C6561725F706F72BE
:101968007420706F72742070696E202D20736574F6
:10197800203020706F72745B70696E5D2076616CC8
:1019880075652C20737570706F7274206F6E6C792A
:101998002027706F72745F622720616E6420277041
:1019A8006F72745F64270A0D006F6E6C7920302E99
:1019B8002E352070696E20617669616C61626C6594
:1019C80020666F7220504F5254420A0D007365749E
:1019D8005F706F727400636C6561725F706F7274B0
:1019E8000068656C70006D6963726F726C207600B8
:1019F800312E3100206C6962726172792041565231
:101A08002044454D4F207600312E30000A0D0063EA
:101A18006C656172001B5B324A001B5B4800706F8B
:101A280072745F6400706F72745F62006F6E6C79BD
:101A38002027002720616E642027002720737570F7
:101A4800706F72740A0D007370656369667920702F
:101A5800696E206E756D6265722C207573652054F1
:101A680061620A0D007370656369667920706F7230
:101A7800742C20757365205461620A0D00636F6DC4
:101A88006D616E643A20270027204E6F7420666FC0
:101A9800756E642E0A0D00E1010F02CD01D60125F5
:041AA800021E020018
:00000001FF
