:1000000012C02CC02BC02AC029C028C027C026C0BF
:1000100025C024C023C022C021C020C01FC01EC0D4
:100020001DC01CC01BC011241FBECFE5D4E0DEBF25
:10003000CDBF12E0A0E6B0E0E2E7F9E102C0059032
:100040000D92A43DB107D9F712E0A4EDB2E001C0D2
:100050001D92A23EB107E1F702D089CCD1CFFF9229
:100060000F931F93DF93CF93CDB7DEB7C35CD04020
:100070000FB6F894DEBF0FBECDBF90D78E010F5FD5
:100080001F4FC80168ED77E063D0C8016AEC78E0E3
:1000900059D0C8016AE178E04FD0F02E012F92D7F5
:1000A000682F772767FD70958F2D902F69D3F7CF35
:1000B000CF93DF93EC0140E050E020E030E002C05D
:1000C0002F5F3F4FFE01E20FF31FE857FF4F808184
:1000D000882321F4261737079CF32AC026173707F1
:1000E0003CF5FA01EE0FFF1FEC0FFD1FE355FF4F2C
:1000F00028573F4FDE01A20FB31F28583040B1836D
:10010000A0834F5F5F4F483051051CF04FEF5FEF0A
:100110000FC0FD0102C02F5F3F4F8081882329F06F
:10012000319626173707BCF303C02617370754F25A
:10013000CA01DF91CF910895FC01E154FF4F718313
:1001400060830895FC01E354FF4F71836083089539
:10015000CF93DF93FC0188579F4FDC0181E2ED01D3
:1001600019928A95E9F780E8EF0119928A95E9F7E3
:10017000E058FF4F11921192119211921182108248
:10018000B59611921192118210827296119211926B
:1001900011821082F9978091B2009091B3009183FF
:1001A0008083FB9671836083DF91CF910895AF9236
:1001B000BF92CF92DF92EF92FF920F931F93CF9354
:1001C000DF937C016B01FC01E058FF4F0081B1809F
:1001D000202F3B2DC9019C0160E070E00EC02F5F15
:1001E0003F4F992787FD9095280F391F20383105FB
:1001F00014F0205830406F5F7F4FF701E20FF31F7C
:100200008081882361F7F701EC57FF4F452B09F0F8
:1002100040C0A081B1816A177B070CF49DC061507A
:100220007040802F9B2D9C01E9010AC02196CE0FC2
:10023000DF1FC038D10514F0C058D0406150704065
:100240005701AC0EBD1EF5014081442309F484C062
:10025000E42FFF27E7FDF0956A177B0739F78AC07F
:10026000219697012C0F3D1F219750C00FE710E0FA
:100270000C1B1D0B219697012C0F3D1F2197C601CA
:10028000B901A8015CD8A601400F511FD5012C91DE
:1002900052C080819181181619060CF05DC0DC01F6
:1002A0001197B183A083E0E8F0E0EE0EFF1EF701A6
:1002B000C081D18180E89FEFE80EF91E9B010EC03E
:1002C0002196842F992787FD9095C80FD91FC03894
:1002D000D10514F0C058D04021503040F701EC0F48
:1002E000FD1F4081442319F02A173B0749F7E42FEB
:1002F000FF27E7FDF095CF018C0F9D1F9E012F5F1B
:100300003F4F8038910534F42E0D3F1DC601B901D1
:10031000AF0119C00FE710E00C1B1D0B2E0D3F1D88
:10032000C601B901A8010BD8A601400F511FF70162
:10033000EC0FFD1F2081332727FD3095201B310B4B
:10034000CA01B701A901FBD7CE0DDF1D8881282F77
:10035000332727FD309502C020E030E0C901DF914E
:10036000CF911F910F91FF90EF90DF90CF90BF90B2
:10037000AF900895A4E8B0E0EA0EFB1E6F5F7F4FD8
:10038000D7016D937C938CE79FEFE80EF91ECF01A8
:100390008C0F9D1F803891050CF462CF67CF0F93AF
:1003A0001F93DF93CF93CDB7DEB760970FB6F89466
:1003B000DEBF0FBECDBF8C01DE01119680E1FD01D5
:1003C00011928A95E9F71616170614F58DB79EB7A0
:1003D00008970FB6F8949EBF0FBE8DBF2DB73EB7DE
:1003E0002F5F3F4FEDB7FEB7B283A18380E190E06E
:1003F000D90113969C938E93129780E690E0159600
:100400009C938E93149717967C936E93169728C09F
:100410006115710571F18DB79EB708970FB6F89405
:100420009EBF0FBE8DBF2DB73EB72F5F3F4FEDB7BD
:10043000FEB7B283A18380E190E0D90113969C932B
:100440008E93129786E690E015969C938E93149760
:1004500088279927861B970B17969C938E93169740
:10046000B3D7EDB7FEB738960FB6F894FEBF0FBE00
:10047000EDBF0F531F4FD801ED91FC91CE010196B6
:10048000099560960FB6F894DEBF0FBECDBFCF9131
:10049000DF911F910F910895EF92FF920F931F9399
:1004A000DF93CF93CDB7DEB760970FB6F894DEBF7A
:1004B0000FBECDBF8C018DB79EB70A970FB6F894CB
:1004C0009EBF0FBE8DBFEDB7FEB731967E0108947B
:1004D000E11CF11CADB7BEB71296FC92EE921197DB
:1004E00080E190E0938382838CE690E0958384831F
:1004F0008AE290E09783868387E090E09187808707
:1005000063D78DB79EB70A960FB6F8949EBF0FBEFD
:100510008DBF0F531F4FD801ED91FC91C701099575
:1005200060960FB6F894DEBF0FBECDBFCF91DF91BE
:100530001F910F91FF90EF9008953F924F925F921D
:100540006F927F928F929F92AF92BF92CF92DF92E3
:10055000EF92FF920F931F93DF93CF9300D0CDB70D
:10056000DEB75C018B012A0131ECE32EF12CE80EA1
:10057000F91ED701ED91FC9187E790E0099519826A
:100580001A8208571F4F6501C00ED11E085810402F
:1005900029EA822E912C8A0C9B1C90E2392E3E0176
:1005A0000894611C711C10C0F60180818983882326
:1005B00009F43982D701ED91FC91C30109950F5FD0
:1005C0001F4F0894C11CD11CF40180819181081730
:1005D000190754F3C50160DFC501B201E0DE0F90D9
:1005E0000F90CF91DF911F910F91FF90EF90DF90CF
:1005F000CF90BF90AF909F908F907F906F905F90C3
:100600004F903F900895EF92FF920F931F93CF93D7
:10061000DF93EC014BEAE42EF12CE80EF91EF70112
:1006200080819181181619068CF5CF53DF4FE88130
:10063000F981C15CD0408BE790E00995F70180819A
:100640009181BC0168577F4F6C0F7D1F8E0107554C
:100650001F4FF801408151814F5F5F4F481B590B7D
:1006600089579F4F8C0F9D1F73D6F7018081918111
:10067000019791838083F80180819181C80FD91FF0
:10068000C857DF4F1882019791838083DF91CF9104
:100690001F910F91FF90EF900895CF92DF92EF920C
:1006A000FF920F931F93CF93DF93EC016B017A01BD
:1006B000C755DF4F48815981C95AD040C701840FBF
:1006C000951F81971CF020E030E050C08E01055549
:1006D0001F4FD8018D919C919701280F391F2857E2
:1006E0003F4FBC0168577F4F6C0F7D1F481B590B54
:1006F000CE01820F931F2CD640E050E0B8011CC001
:10070000FE01E40FF51FDB012D913C91E20FF31F79
:10071000E857FF4FD601A40FB51F8C918083FA01D3
:10072000E20FF31FEC0FFD1FE857FF4F808180326F
:1007300009F410824F5F5F4F4E155F050CF3F8010F
:10074000808191818E0D9F1D91838083FE01E755ED
:10075000FF4F808191818E0D9F1D91838083C80FF3
:10076000D91FC857DF4F188221E030E0C901DF915F
:10077000CF911F910F91FF90EF90DF90CF90089550
:100780004F925F926F927F928F929F92AF92BF92A1
:10079000CF92DF92EF92FF920F931F93DF93CF934D
:1007A00000D0CDB7DEB76C017A8369838091D40223
:1007B0009091D502892B09F4B0C029812B3519F409
:1007C00081E090E073C08091D6029091D702813091
:1007D000910509F076C0213439F4B60168577F4F8E
:1007E000C60140E050E008C0223429F5B601685740
:1007F0007F4FC60141E050E0DADC009709F4B4C352
:1008000029EA30E0C20ED31ED6018D939C93E7E512
:10081000FFEFCE0EDF1E860105551F4FD8018D93C9
:100820009C93C60139DEF80140815181C60160E028
:1008300070E083DE99C32334F9F4860105551F4F18
:1008400029EA30E0C20ED31ED8012D913C91F60169
:100850008081918147E55FEFC40ED51E28173907C7
:100860000CF082C3C60161E070E099DDD8018D9182
:100870009C91119701964EC02434A1F48601055530
:100880001F4FF80180819181181619060CF06CC376
:10089000C6016FEF7FEF83DDD8018D919C91119799
:1008A000019738C0273339F482E090E09093D70263
:1008B0008093D60260C3283309F05DC383E090E0E3
:1008C000F5CF2E3709F057C38230910551F4C60198
:1008D000E3DDEBEAF0E0CE0EDF1ED6011D921C92A6
:1008E00043C3039709F047C3860107551F4F8BEA9F
:1008F000E82EF12CEC0CFD1CF80160817181D70110
:100900008D919C91681B790BC60149DDF8018081AE
:100910009181D7018D939C9327C389819A818A30D5
:10092000910509F440C08B309105ECF485309105B8
:1009300009F449C2863091054CF48130910509F4DF
:100940005BC28230910509F0D8C27FC28830910520
:1009500009F4C3C2893091050CF028C18630910595
:1009600009F0CBC253C28031910509F483C28131B1
:10097000910564F48D309105B1F08E30910509F444
:1009800088C28B30910509F0B8C208C28B3191053D
:1009900009F4F0C18F37910509F49FC285319105A3
:1009A00009F0ABC2F1C1E1ECF0E0CE0EDF1ED601E2
:1009B000ED91FC9183E890E00995E8EEFFEFCE0E13
:1009C000DF1ED601ED90FC90E7E5FFEFCE0EDF1EB7
:1009D0001E141F040CF08CC0D601A857BF4FB601DF
:1009E00060587F4F12E8A12EB12CAC0CBD1C05C085
:1009F00020583040FB0131832083FB01408151812D
:100A0000F601E40FF51F1081112309F4B2C2F501BC
:100A1000208131812417350724F0CA0181589F4F66
:100A200002C0CA010197821B930BE816F9060CF06D
:100A30008DC222E830E0C20ED31EF6018081918182
:100A40002EE73FEFC20ED31E0FE710E0081B190B75
:100A50000196E016F1063CF49601280F391FC901F2
:100A6000BD01A70112C09601280F391FC901BD01A0
:100A7000A80165D4F701E01BF10B980128573F4FFF
:100A80002C0D3D1DC601B901AF0159D4D601AE5799
:100A9000BF4F8D919C911197F601E80FF91FE082ED
:100AA000A701480F591FCA01019611969C938E9376
:100AB0008038910524F04F5750404D935C9342E8A5
:100AC00050E0C40ED51ED601ED91FC912EE73FEF0C
:100AD000C20ED31EEC0DFD1D108244E850E0C40E82
:100AE000D51ED6011D921C92ECE7FFEFCE0EDF1E45
:100AF00029EA30E0C20ED31ED6016D917C91E7E564
:100B0000FFEFCE0EDF1EC601D3DAFFEF8F3F9F0748
:100B100079F421EC30E0C20ED31ED601ED91FC91A8
:100B20002FE33FEFC20ED31E86E890E0099514C074
:100B3000181619068CF44DEB50E0C40ED51ED601E4
:100B4000ED91FC9123E43FEFC20ED31E309721F0CC
:100B5000B60163557F4F0995F601EF53FF4F46E805
:100B600050E0C40ED51E0190F081E02DD6018D918C
:100B70009C910995E3E2F0E0CE0EDF1ED6011D92B6
:100B80001D926D011D921C92E5E5FFEFCE0EDF1E5A
:100B9000C60188579F4FFC0181E2DF011D928A95B3
:100BA000E9F7E4E8F0E0CE0EDF1E2CC1EFEBF0E059
:100BB000CE0EDF1ED6018D919C91E1E4FFEFCE0EAB
:100BC000DF1E892B09F4D7C1860105551F4FD801B7
:100BD0006D917C91C6016CDA2C01D801ED91FC91EC
:100BE000EC0DFD1DE957FF4F8081882371F4F20160
:100BF000EE0FFF1FEC0DFD1DE355FF4F8EE990E05A
:100C0000918380830894411C511CB60163557F4F2A
:100C1000EFEBF0E0CE0EDF1ED601ED91FC9121E46A
:100C20003FEFC20ED31EC20109955C01DC012D917C
:100C30003C9111972115310509F49DC112968D91B2
:100C40009C911397892B29F000E010E021E030E01F
:100C50002DC0D9010D900020E9F78D010150104001
:100C6000021B130B50C0E00FF11F9081F901319767
:100C7000EE0FFF1FEA0DFB1D0190F081E02DE00F4C
:100C8000F11F8081981711F4992371F4E1ECEE2E95
:100C9000F12CEC0CFD1CD701ED91FC9183E890E068
:100CA00009953501470119C00F5F1F4FF901EE0F7C
:100CB000FF1FEA0DFB1D0190F081E02D309799F6A2
:100CC0002F5F3F4FF3CFD401ED91FC910995D401F3
:100CD000ED91FC918FE990E00995F301819191915B
:100CE0003F01009781F7D701ED91FC9183E890E0F7
:100CF0000995F601EA57FF4FD7012D913C9180816C
:100D00009181F90109950115110531F1F201319730
:100D1000EE0FFF1FEC0DFD1DE355FF4FA081B181CC
:100D2000FD0101900020E9F73197EA1BFB0BD5018B
:100D30006D917C916E0F7F1F0E1B1F0BC601A801CA
:100D4000ACDCF50182819381892B31F4C6016FE916
:100D500070E041E050E0A1DCC6019EDB2BEA30E010
:100D6000C20ED31ED6014D915C91E5E5FFEFCE0E8C
:100D7000DF1EAFC081E090E09093D5028093D40253
:100D8000FAC0C60140DC03C0860105551F4FD801DB
:100D90004D915C9114161506A4F39BC0E1ECF0E0B4
:100DA000CE0EDF1ED601ED91FC9187E790E009950C
:100DB000EAEEFFEFCE0EDF1ED6018D919C91F6017B
:100DC00092938293D8C0860107551F4F5BEAE52EA8
:100DD000F12CEC0CFD1CD8016D917C91F701808108
:100DE0009181681B790BC601DADAD8018D919C914B
:100DF000F70191838083BFC0C6014EDB2BEA30E050
:100E0000C20ED31ED6011D921C92B5C08601055597
:100E10001F4FE9EAF0E0CE0EDF1ED8012D913C9184
:100E2000F6018081918147E55FEFC40ED51E28173A
:100E300039070CF0A0C0C60161E070E0B0DAD8015B
:100E40008D919C911197019612C0860105551F4FF7
:100E5000F80180819181892B09F48DC0C6016FEF63
:100E60007FEF9DDAD8018D919C91119701978D9319
:100E70009C9381C0B60168577F4FC60140E050E0A7
:100E800096D9009709F477C0E9EAF0E0CE0EDF1EAC
:100E90000EC0B60168577F4FC60141E050E087D9C8
:100EA000009709F468C029EA30E0C20ED31ED601CB
:100EB0008D939C93E7E5FFEFCE0EDF1E860105556F
:100EC0001F4FD8018D939C93C601E6DAF80140814B
:100ED0005181C60160E070E037C0C60194DB2BEAA7
:100EE00030E0C20ED31ED6014D915C91E5E5FFEFD7
:100EF000CE0EDF1EC601BA0127C0809769F429EA29
:100F000030E0C20ED31ED6018D919C91E7E5FFEF34
:100F1000CE0EDF1E892B79F1C601BE016F5F7F4FB8
:100F200041E050E0BADB892B31F12BEA30E0C20E10
:100F3000D31ED6014D915C91E5E5FFEFCE0EDF1E8D
:100F4000BA0161507040C601F8DA15C09A012F5FEE
:100F50003F4F812F992787FD9095280F391F203803
:100F600031050CF045CD46CD1092D5021092D40239
:100F700002C0E0825ECD0F900F90CF91DF911F9164
:100F80000F91FF90EF90DF90CF90BF90AF909F9028
:100F90008F907F906F905F904F90089588E089B90F
:100FA00086E880BD88E18AB98FEF87BB81BB089551
:100FB000FC0104C05D9BFECF8CB9319680818823F3
:100FC000C9F708955F9BFECF8CB1089584EB90E044
:100FD000EFDF8BED90E0ECDF8BE191E0E9DF86E382
:100FE00091E0E6DF87E891E0E3DF0895FC012081EE
:100FF00082B388B3281739F46630710524F08AED7E
:1010000091E0D6DF0895452B51F081E090E002C0D9
:10101000880F991F6A95E2F7282B2083089581E0B5
:1010200090E002C0880F991F6A95E2F780958223AD
:1010300080830895CF92DF92EF92FF920F931F93D8
:10104000CF93DF93EC018B011092D9021092D8025A
:101050008130910521F5FB01C080D18058ECE52E4F
:1010600052E0F52EC0E0D0E0F70100811181C80107
:10107000B60188D18017910741F4FE01EE0FFF1FE2
:10108000E852FD4F91838083219682E090E0E80E44
:10109000F91E90EDE91692E0F90631F76AC0823048
:1010A00091050CF444C0FB01E080F180C7016EEFB4
:1010B00071E05FD1009759F57E010894E108F108CD
:1010C000EE0CFF1CE00EF11E0091D0021091D10237
:1010D000F70160817181C80155D18017910719F01E
:1010E000C0E0D0E006C09093D9028093D802C1E05E
:1010F000D0E00091D2021091D302F701608171819A
:10110000C80140D19C018017910799F507C0C7011C
:1011100067E072E02ED1009779F209C0FE01EE0F70
:10112000FF1FE852FD4F31832083219622C080911A
:10113000C8029091C9029093D9028093D8028091FD
:10114000CA029091CB029093DB028093DA028091E5
:10115000CC029091CD029093DD028093DC028091CD
:10116000CE029091CF029093DF028093DE02C4E022
:10117000D0E0CC0FDD1FC852DD4F1982188288EDF8
:1011800092E0DF91CF911F910F91FF90EF90DF9050
:10119000CF900895AF92BF92CF92DF92EF92FF92DD
:1011A0000F931F93CF93DF935C016B017B01C0E032
:1011B000D0E096C0F70100811181C80162E172E0C0
:1011C000D8D0009789F487E192E0F2DE81E292E0E4
:1011D000EFDE85E292E0ECDE89E392E0E9DE8DE38A
:1011E00092E0E6DEF3DE77C0C80160E472E0C1D0D1
:1011F000009731F486E492E0DBDE8BE492E06AC093
:10120000C8016EEF71E0B5D0009739F0C80167E012
:1012100072E0AFD0009709F054C08E010F5F1F4FEE
:101220000A151B050CF04AC0CC0FDD1FCC0DDD1DCF
:101230008881998167E072E09CD0F82EE92EF80150
:10124000EE0FFF1FEC0DFD1DC081D181CE016FE4BB
:1012500072E08FD00097C1F0CE0166E572E089D0D0
:10126000009719F4C8E3D0E011C08DE592E0A0DE4C
:1012700086E592E09DDE84E692E09ADE8FE492E0DD
:1012800097DE8CE692E016C0C2E3D0E0F80131961A
:10129000EA15FB056CF4EE0FFF1FEC0DFD1D8081C0
:1012A000918130D0BC01CE014F2D5E2D9FDE1CC040
:1012B00088E792E07DDE21E030E018C086E992E028
:1012C000F9CF8EEA92E074DEF7018081918170DEC1
:1012D00089EB92E06DDE219682E090E0E80EF91E47
:1012E000CA15DB050CF466CF20E030E0C901DF91C0
:1012F000CF911F910F91FF90EF90DF90CF90BF9013
:10130000AF900895FC0188279927E8942191203215
:10131000E9F3293010F02E30C8F32B3239F02D329A
:1013200031F4689403C048D0820F911D219120535D
:101330002A30C8F31EF4909581959F4F0895FB01C4
:10134000DC0102C001900D9241505040D8F7089541
:101350006817790768F4FB01DC01E40FF51FA40F9F
:10136000B51F02C002900E9241505040D8F7089528
:10137000E6CFFB01DC018D91019080190110D9F3BA
:10138000990B0895FB0151915523A9F0BF01DC0190
:101390004D9145174111E1F759F4CD01019000201D
:1013A00049F04D9140154111C9F3FB014111EFCFB7
:1013B00081E090E0019708957AE0979F902D879FB4
:1013C000802D910D11240895AEE0B0E0E9EEF9E032
:1013D000A5C20D891E898F89988D97FF02C080E074
:1013E00090E801979E838D831A83098386E08C831E
:1013F0009E01255E3F4FCE010196698D7A8DA90130
:1014000011D04D815E8157FD0AC02F81388542176A
:1014100053070CF49A01020F131FF80110822E9645
:10142000E4E098C2ABE0B0E0E7E1FAE069C23C0179
:101430002B015A01FC0117821682838181FD03C0B2
:101440006FEF7FEFB9C19AE0892E1E010894211C2D
:10145000311CF3012381F20123FD859123FF81914A
:101460002F01882309F4A5C1853239F423FD859124
:1014700023FF81912F01853221F490E0B301B6D191
:10148000E8CF982FFF24EE249924FFE1FF15D0F038
:101490009B3269F09C3228F4903259F0933291F4E7
:1014A0000EC09D3249F0903369F441E024C052E00F
:1014B000F52A84E0F82A28C098E0F92A25C0E0E15E
:1014C000FE2A22C0F7FC29C0892F80538A3070F48D
:1014D000F6FE05C0989C902C1124980E15C0E89C2F
:1014E000E02C1124E80EF0E2FF2A0EC09E3229F40F
:1014F000F6FC5FC140E4F42A07C09C3619F450E8BA
:10150000F52A02C0983649F4F20123FD959123FF94
:1015100091912F01992309F0B8CF892F85548330F9
:1015200018F08052833038F444E050E0A40EB51E29
:101530005FE359830FC0933631F0933779F09335D9
:1015400009F052C01FC0F5018081898342E050E05C
:10155000A40EB51E610101E010E011C0F501C080CC
:10156000D180F6FC03C06FEF7FEF02C0692D70E001
:1015700042E050E0A40EB51EC6012DD18C015FE7FC
:10158000F52213C0F501C080D180F6FC03C06FEFD7
:101590007FEF02C0692D70E042E050E0A40EB51E5E
:1015A000C6010ED18C0150E8F52AF3FE06C018C022
:1015B00080E290E0B3011AD1EA948E2D90E00817F2
:1015C0001907B0F30DC0F601F7FC8591F7FE819184
:1015D0006F0190E0B3010AD1E110EA94015010408C
:1015E0000115110581F7E2C0943611F0993661F5C5
:1015F000F7FE08C0F501208131814281538184E0EA
:1016000090E00AC0F501808191819C01442737FD5B
:101610004095542F82E090E0A80EB91E9FE6F92273
:1016200057FF09C050954095309521953F4F4F4F3A
:101630005F4FE0E8FE2ACA01B901A1012AE030E0CB
:1016400001D1D82ED2183FC0953729F41F2D1F7E07
:101650002AE030E01DC01F2D197F9F3661F09037C2
:1016600020F4983509F0A5C00FC0903739F09837AD
:1016700009F09FC004C028E030E00AC0106114FDEA
:10168000146020E130E004C014FD166020E132E077
:1016900017FF08C0F501608171818281938144E068
:1016A00050E008C0F50180819181BC0180E090E0AC
:1016B00042E050E0A40EB51EA101C4D0D82ED2182D
:1016C0008FE7F82EF122F6FE0BC05EEFF522D9145B
:1016D00038F4F4FE07C0F2FC05C08FEEF82202C019
:1016E0001D2D01C0192DF4FE0DC0FE01ED0DF11DE3
:1016F0008081803319F499EEF92208C01F5FF2FE51
:1017000005C003C08F2D867809F01F5F0F2DF3FCF5
:1017100013C0F0FE0EC01E1510F09D2C0AC09D2CAB
:101720009E0C911A1E2D05C080E290E0B3015ED0A0
:101730001F5F1E15C8F304C01E1510F4E11A01C086
:10174000EE2404FF0EC080E390E0B3014FD002FF0F
:101750001BC001FD03C088E790E00EC088E590E063
:101760000BC0802F867881F001FF02C08BE201C0A0
:1017700080E2F7FC8DE290E0B30138D005C080E351
:1017800090E0B30133D09A94D914C8F3DA94F101FC
:10179000ED0DF11D808190E0B30128D0DD20B1F77F
:1017A00005C080E290E0B30121D0EA94EE20C9F7B1
:1017B00050CEF30166817781CB012B96E2E1BCC06C
:1017C000FC010590615070400110D8F7809590950C
:1017D0008E0F9F1F0895FC01615070400190011011
:1017E000D8F7809590958E0F9F1F08950F931F93A4
:1017F000CF93DF938C01EB018B8181FF1BC082FFB4
:101800000DC02E813F818C819D812817390764F49A
:10181000E881F9810193F983E88306C0E885F985B9
:10182000802F0995892B31F48E819F8101969F83AA
:101830008E8302C00FEF1FEFC801DF91CF911F9180
:101840000F910895FA01AA27283051F1203181F132
:10185000E8946F936E7F6E5F7F4F8F4F9F4FAF4FB8
:10186000B1E03ED0B4E03CD0670F781F891F9A1FCB
:10187000A11D680F791F8A1F911DA11D6A0F711D7F
:10188000811D911DA11D20D009F468943F912AE08B
:10189000269F11243019305D3193DEF6CF01089573
:1018A000462F4770405D4193B3E00FD0C9F7F6CFA4
:1018B000462F4F70405D4A3318F0495D31FD40526C
:1018C000419302D0A9F7EACFB4E0A6959795879502
:1018D00077956795BA95C9F70097610571050895E1
:1018E0009B01AC010A2E069457954795379527958D
:1018F000BA95C9F7620F731F841F951FA01D089525
:101900002F923F924F925F926F927F928F929F920F
:10191000AF92BF92CF92DF92EF92FF920F931F93FD
:10192000CF93DF93CDB7DEB7CA1BDB0B0FB6F894AE
:10193000DEBF0FBECDBF09942A88398848885F84EE
:101940006E847D848C849B84AA84B984C884DF805F
:10195000EE80FD800C811B81AA81B981CE0FD11D43
:101960000FB6F894DEBF0FBECDBFED010895F89419
:02197000FFCFA7
:101972001B5B256443001B5B256444001B5B2564E1
:10198200441B5B256443001B5B4B001B5B44201B19
:101992005B44000A0D004552524F523A746F6B6518
:1019A2006E7320746F6F206D7563680A0D000020DE
:1019B200001B5B33326D4952696E203E1B5B306DFA
:1019C2002000A10055736520544142206B657920A7
:1019D200666F7220636F6D706C6574696F6E0A0D4D
:1019E200436F6D6D616E643A0A0D0009766572731C
:1019F200696F6E202D20207072696E742076657278
:101A020073696F6E206F66206D6963726F726C20EE
:101A1200616E642076657273696F6E206F662074E2
:101A22006869732064656D6F0A0D0009636C6561F6
:101A320072202D20202020636C65617220736372F6
:101A420065656E0A0D00097365745F706F727420AC
:101A5200706F72742070696E202D2073657420314E
:101A620020706F72745B70696E5D2076616C756553
:101A72002C20737570706F7274206F6E6C792027D2
:101A8200706F72745F622720616E642027706F72BC
:101A9200745F64270A0D0009636C6561725F706F81
:101AA200727420706F72742070696E202D207365BD
:101AB20074203020706F72745B70696E5D20766185
:101AC2006C75652C20737570706F7274206F6E6CFC
:101AD200792027706F72745F622720616E642027FD
:101AE200706F72745F64270A0D006F6E6C7920301C
:101AF2002E2E352070696E20617669616C61626C90
:101B02006520666F7220504F5254420A0D00736571
:101B1200745F706F727400636C6561725F706F7274
:101B2200740068656C70006D6963726F726C207608
:101B320000312E3100206C69627261727920415647
:101B4200522044454D4F207600312E30000A0D00C0
:101B5200636C656172001B5B324A001B5B4800705C
:101B62006F72745F6400706F72745F62006F6E6C8C
:101B7200792027002720616E6420270027207375B3
:101B820070706F72740A0D007370656369667920F4
:101B920070696E206E756D6265722C20757365209A
:101BA2005461620A0D007370656369667920706F13
:101BB20072742C20757365205461620A0D00636F84
:101BC2006D6D616E643A20270027204E6F74206687
:101BD2006F756E642E0A0D0012024002FE010702AA
:041BE20056024F0256
:00000001FF
