:1000000012C02CC02BC02AC029C028C027C026C0BF
:1000100025C024C023C022C021C020C01FC01EC0D4
:100020001DC01CC01BC011241FBECFE5D4E0DEBF25
:10003000CDBF12E0A0E6B0E0ECE3F9E102C005902C
:100040000D92A23BB107D9F713E0A2EBB2E001C0D9
:100050001D92A938B107E1F702D06ECCD1CF0F9332
:100060001F9380D780916000909161006CEB77E0E6
:1000700077D080916000909161006FEA78E064D061
:1000800080916000909161006FEF77E057D0809190
:100090006000909161006BEF77E05CD000916000B0
:1000A0001091610073D7682F772767FD7095C8019D
:1000B00082D3F4CFCF93DF93EC0140E050E020E017
:1000C00030E002C02F5F3F4FFE01E20FF31FE85BFD
:1000D000FF4F8081882321F4261737079CF32AC01D
:1000E000261737073CF5FA01EE0FFF1FEC0FFD1F37
:1000F000EF54FF4F285B3F4FDE01A20FB31F285480
:100100003040B183A0834F5F5F4F483051051CF0F2
:100110004FEF5FEF0FC0FD0102C02F5F3F4F8081A7
:10012000882329F0319626173707BCF303C026171A
:10013000370754F2CA01DF91CF910895FC01ED53C6
:10014000FF4F718360830895FC01EF53FF4F71836C
:1001500060830895FC01E953FF4F71836083089524
:10016000CF93DF93FC01885B9F4FDC0185E6ED01B7
:1001700019928A95E9F780E4EF0119928A95E9F7D7
:10018000E05CFF4F11921192119211921182108234
:10019000E759FF4F119211921182108272961192BB
:1001A000119211821082349611821082E158F0402F
:1001B0008091B4009091B50091838083E158FF4F06
:1001C00071836083DF91CF910895EF92FF920F9337
:1001D0001F93DF93CF93CDB7DEB760970FB6F89438
:1001E000DEBF0FBECDBF8C018DB79EB70A970FB68D
:1001F000F8949EBF0FBE8DBFEDB7FEB731967E015E
:100200000894E11CF11CADB7BEB71296FC92EE92B9
:10021000119780E190E09383828382E690E095835A
:1002200084838EE690E09783868387E090E09187D1
:100230008087AFD88DB79EB70A960FB6F8949EBF49
:100240000FBE8DBF0B531F4FD801ED91FC91C7011D
:10025000099560960FB6F894DEBF0FBECDBFCF9163
:10026000DF911F910F91FF90EF9008950F931F93CF
:10027000DF93CF93CDB7DEB760970FB6F894DEBFAC
:100280000FBECDBF8C01DE01119680E1FD01119200
:100290008A95E9F71616170614F58DB79EB70897D5
:1002A0000FB6F8949EBF0FBE8DBF2DB73EB72F5F20
:1002B0003F4FEDB7FEB7B283A18380E190E0D90153
:1002C00013969C938E9312978DE690E015969C93CF
:1002D0008E93149717967C936E93169728C061158A
:1002E000710571F18DB79EB708970FB6F8949EBF50
:1002F0000FBE8DBF2DB73EB72F5F3F4FEDB7FEB797
:10030000B283A18380E190E0D90113969C938E93F0
:10031000129783E790E015969C938E931497882705
:100320009927861B970B17969C938E93169731D817
:10033000EDB7FEB738960FB6F894FEBF0FBEEDBF0F
:100340000B531F4FD801ED91FC91CE0101960995F9
:1003500060960FB6F894DEBF0FBECDBFCF91DF9190
:100360001F910F9108953F924F925F926F927F92EB
:100370008F929F92AF92BF92CF92DF92EF92FF92B5
:100380000F931F93DF93CF9300D0CDB7DEB75C01FF
:100390008B012A0135ECE32EF12CE80EF91ED70172
:1003A000ED91FC9189E790E0099519821A82085B2A
:1003B0001F4F6501C00ED11E085410402DEA822E39
:1003C000912C8A0C9B1C90E2392E3E010894611CF2
:1003D000711C10C0F60180818983882309F4398259
:1003E000D701ED91FC91C30109950F5F1F4F089450
:1003F000C11CD11CF401808191810817190754F3A5
:10040000C501E3DEC501B20131DF0F900F90CF913E
:10041000DF911F910F91FF90EF90DF90CF90BF90F1
:10042000AF909F908F907F906F905F904F903F9094
:100430000895CF92DF92EF92FF920F931F93CF9385
:10044000DF93EC01DC01A85BBF4FC05CDF4FE880AD
:10045000F980C054D040970140E050E00EC02F5FBB
:100460003F4F992787FD9095280F391F203431057C
:1004700014F0205430404F5F5F4FFE01E20FF31F36
:100480008081882361F7FE01EC5BFF4F672BD1F57C
:1004900080819181481759070CF4C6C09A010DC09C
:1004A0000894E11CF11CEE0EFF1E40E4E416F1047A
:1004B00024F0E0ECFFEFEE0EFF1E215030406E0105
:1004C000CE0CDF1CF6014081442309F4ADC0E42FBB
:1004D000FF27E7FDF0952817390711F792C00FE3C2
:1004E00010E00E191F092C0F3D1FCD01B901A80105
:1004F0000BD7085B1F4FAE01400F511F085410402F
:10050000F60156C080819181181619060CF08CC036
:10051000BC016150704071836083C05CDF4FE88034
:10052000F980C054D0409A0113C00894E11CF11C1A
:10053000842F992787FD9095E80EF91EF0E4EF16B9
:10054000F10424F040EC5FEFE40EF51E2150304042
:10055000FE01EE0DFF1D4081442319F026173707D9
:1005600021F7E42FFF27E7FDF095CF018E0D9F1DAA
:1005700097012F5F3F4F8034910534F42C0F3D1FBE
:10058000CD01B901AF011DC00FE310E00E191F0925
:100590002C0F3D1FCD01B901A801B6D6085B1F4F36
:1005A000AE01400F511F08541040FE01EE0DFF1D1B
:1005B0002081332727FD3095201B310BCA01BE0156
:1005C000A901A2D6EC0EFD1EF7018081992787FDB7
:1005D0009095009749F1C355DF4F99838883CD5A91
:1005E000D0408E0101551F4FF80191838083CE01C9
:1005F000ECDDF80140815181CE0160E070E0B3DEB6
:1006000013C0CC5BDF4F2F5F3F4F39832883C45427
:10061000D040CF018E0D9F1D97012F5F3F4F80343B
:1006200091050CF4ABCF5BCFDF91CF911F910F9170
:10063000FF90EF90DF90CF900895EF92FF920F938D
:100640001F93CF93DF93EC014FEAE42EF12CE80ED9
:10065000F91EF70180819181181619068CF5CB538C
:10066000DF4FE881F981C55CD0408DE790E00995C6
:10067000F70180819181BC01685B7F4F6C0F7D1F0A
:100680008E0103551F4FF801408151814F5F5F4F2D
:10069000481B590B895B9F4F8C0F9D1F3ED6F7015E
:1006A00080819181019791838083F801808191817C
:1006B000C80FD91FC85BDF4F1882019791838083D1
:1006C000DF91CF911F910F91FF90EF900895CF92FE
:1006D000DF92EF92FF920F931F93CF93DF93EC0182
:1006E0006B017A01C355DF4F48815981CD5AD04003
:1006F000C701840F951F853691051CF020E030E07E
:1007000050C08E0101551F4FD8018D919C919701CA
:10071000280F391F285B3F4FBC01685B7F4F6C0F70
:100720007D1F481B590BCE01820F931FF6D540E069
:1007300050E0B8011CC0FE01E40FF51FDB012D9154
:100740003C91E20FF31FE85BFF4FD601A40FB51FEA
:100750008C918083FA01E20FF31FEC0FFD1FE85B21
:10076000FF4F8081803209F410824F5F5F4F4E153A
:100770005F050CF3F801808191818E0D9F1D91839F
:100780008083FE01E355FF4F808191818E0D9F1D77
:1007900091838083C80FD91FC85BDF4F188221E087
:1007A00030E0C901DF91CF911F910F91FF90EF9041
:1007B000DF90CF9008954F925F926F927F928F92C9
:1007C0009F92AF92BF92CF92DF92EF92FF920F93E0
:1007D0001F93DF93CF9300D0CDB7DEB76C017A8340
:1007E00069838091B2029091B302892B09F48DC084
:1007F00029812B3519F481E090E050C08091B4023A
:100800009091B5028130910509F053C0213421F453
:10081000C60160E070E005C0223429F4C60161E041
:1008200070E007DE77C32334F9F4860101551F4FCA
:100830002DEA30E0C20ED31ED8012D913C91F60175
:100840008081918143E55FEFC40ED51E28173907DB
:100850000CF060C3C60161E070E008DDD8018D9145
:100860009C91119701964EC02434A1F48601015544
:100870001F4FF80180819181181619060CF04AC3A8
:10088000C6016FEF7FEFF2DCD8018D919C9111973B
:10089000019738C0273339F482E090E09093B50295
:1008A0008093B4024CC3283309F049C383E090E03D
:1008B000F5CF2E3709F043C38230910551F4C601BC
:1008C00084DCEFEAF0E0CE0EDF1ED6011D921C9212
:1008D00021C3039709F033C3860103551F4F8FEAE5
:1008E000E82EF12CEC0CFD1CF80160817181D70120
:1008F0008D919C91681B790BC601B8DCF801808151
:100900009181D7018D939C9305C389819A818A3007
:10091000910509F444C08B3091050CF585309105A3
:1009200009F453C2863091056CF48230910509F4C4
:100930008EC28330910509F4B8C28130910509F067
:10094000C0C25CC28830910509F49FC2893091050C
:100950000CF02BC18630910509F0B3C259C2803129
:10096000910509F489C28131910564F48D309105B6
:10097000B1F08E30910509F483C28B30910509F0F6
:10098000A0C20EC28B31910509F4F3C18F379105D6
:1009900009F47BC28531910509F093C2F4C1E5ECFD
:1009A000F0E0CE0EDF1ED601ED91FC9185E890E0DF
:1009B0000995E8EEFFEFCE0EDF1ED601ED90FC901C
:1009C000E3E5FFEFCE0EDF1E1E141F040CF08FC0F8
:1009D000FFE3EF16F1040CF08AC006C0205430404B
:1009E00011963C932E9306C0D601A05CBF4F8601A2
:1009F0000E5B1F4F4D915C911197F601E40FF51FAF
:100A00006081662309F499C2F8012081318124179D
:100A100035071CF0CA01CF9602C0CA010197821B9C
:100A2000930BE816F9060CF07AC2A601485B5F4FFB
:100A300022E430E0C20ED31ED6018D919C91EEEBE4
:100A4000FFEFCE0EDF1E0FE310E0081B190B01961F
:100A5000E016F1063CF49601280F391FC901BA01CE
:100A6000A70112C09601280F391FC901BA01A801B8
:100A70004BD4F701E01BF10B9801285B3F4F2C0D85
:100A80003D1DC601B901AF013FD4D601AE5BBF4FDA
:100A90008D919C911197F601E80FF91FE082A70153
:100AA000480F591FCA01019611969C938E9380346A
:100AB000910524F04F5350404D935C9322E430E075
:100AC000C20ED31ED601ED91FC912EEB3FEFC20E6C
:100AD000D31EEC0DFD1D108244E450E0C40ED51E63
:100AE000D6011D921C92ECEBFFEFCE0EDF1E2DEA1D
:100AF00030E0C20ED31ED6016D917C91E3E5FFEF8D
:100B0000CE0EDF1EC601D6DAFFEF8F3F9F0779F4C6
:100B100025EC30E0C20ED31ED601ED91FC912BE303
:100B20003FEFC20ED31E88E890E0099514C0181656
:100B300019068CF441EC50E0C40ED51ED601ED919F
:100B4000FC912FE33FEFC20ED31E309721F0B60188
:100B50006F547F4F0995F601EB53FF4F46E450E089
:100B6000C40ED51E0190F081E02DD6018D919C918F
:100B70000995E7E6F0E0CE0EDF1ED6011D921D922C
:100B80006D011D921C92E1E5FFEFCE0EDF1EC60146
:100B9000885B9F4FFC0185E6DF011D928A95E9F78E
:100BA000E4E4F0E0CE0EDF1E2FC1E3ECF0E0CE0E69
:100BB000DF1ED6018D919C91EDE3FFEFCE0EDF1E7F
:100BC000892B09F4BCC1860101551F4FD8016D91D5
:100BD0007C91C6016FDA2C01D801ED91FC91EC0DEE
:100BE000FD1DE95BFF4F8081882371F4F201EE0F58
:100BF000FF1FEC0DFD1DEF54FF4F80EA90E0918345
:100C000080830894411C511CB6016F547F4FE3EC64
:100C1000F0E0CE0EDF1ED601ED91FC912DE33FEF0B
:100C2000C20ED31EC20109955C01DC012D913C91DD
:100C300011972115310509F482C112968D919C916D
:100C40001397892B29F000E010E021E030E02DC05F
:100C5000D9010D900020E9F78D0101501040021BD1
:100C6000130B50C0E00FF11F9081F9013197EE0F87
:100C7000FF1FEA0DFB1D0190F081E02DE00FF11F39
:100C80008081981711F4992371F4E5ECEE2EF12C84
:100C9000EC0CFD1CD701ED91FC9185E890E00995E5
:100CA0003501470119C00F5F1F4FF901EE0FFF1FFC
:100CB000EA0DFB1D0190F081E02D309799F62F5F32
:100CC0003F4FF3CFD401ED91FC910995D401ED9103
:100CD000FC9181EA90E00995F301819191913F01A6
:100CE000009781F7D701ED91FC9185E890E0099597
:100CF000F601EA5BFF4FD7012D913C9180819181F4
:100D0000F90109950115110531F1F2013197EE0F45
:100D1000FF1FEC0DFD1DEF54FF4FA081B181FD01C0
:100D200001900020E9F73197EA1BFB0BD5016D918B
:100D30007C916E0F7F1F0E1B1F0BC601A801C7DC25
:100D4000F50182819381892B31F4C60161EA70E05B
:100D500041E050E0BCDCC60138DA2FEA30E0C20ED8
:100D6000D31ED6014D915C91E1E5FFEFCE0EDF1E63
:100D700013C081E090E09093B3028093B202DFC091
:100D8000C6015BDC03C0860101551F4FD8014D91A0
:100D90005C9114161506A4F3C60160E070E0B8C0BB
:100DA000E5ECF0E0CE0EDF1ED601ED91FC9189E777
:100DB00090E00995EAEEFFEFCE0EDF1ED6018D9191
:100DC0009C91F60192938293BAC0860103551F4FFE
:100DD0005FEAE52EF12CEC0CFD1CD8016D917C91A5
:100DE000F70180819181681B790BC6013FDAD80138
:100DF0008D919C91F70191838083A1C0C601E5D9B3
:100E00002FEA30E0C20ED31ED6011D921C9297C06D
:100E1000860101551F4FEDEAF0E0CE0EDF1ED8012E
:100E20002D913C91F6018081918143E55FEFC40EE5
:100E3000D51E281739070CF082C0C60161E070E0AA
:100E400015DAD8018D919C911197019612C08601F7
:100E500001551F4FF80180819181892B09F46FC0E2
:100E6000C6016FEF7FEF02DAD8018D919C91119747
:100E700001978D939C9363C0C60160E070E003C04E
:100E8000C60161E070E0D5DA5AC0C601D6DBEFEAF0
:100E9000F0E0CE0EDF1ED6014D915C91E1E5FFEF53
:100EA000CE0EDF1EC601BA0133C027EC30E0C20E01
:100EB000D31ED601ED91FC91309709F440C00995FD
:100EC0003EC0809769F4EDEAF0E0CE0EDF1ED60159
:100ED0008D919C91E3E5FFEFCE0EDF1E892B79F11A
:100EE000C601BE016F5F7F4F41E050E0F0DB892B10
:100EF00031F12FEA30E0C20ED31ED6014D915C9144
:100F0000E1E5FFEFCE0EDF1EBA0161507040C60171
:100F10002ADA15C01092B3021092B20210C09A01E0
:100F20002F5F3F4F862F992787FD9095280F391FF8
:100F3000203431050CF052CD53CDE08276CD0F90A8
:100F40000F90CF91DF911F910F91FF90EF90DF9065
:100F5000CF90BF90AF909F908F907F906F905F9059
:100F60004F90089588E089B986E880BD88E18AB904
:100F70008FEF87BB81BB0895FC0104C05D9BFECF52
:100F80008CB9319680818823C9F708955F9BFECF85
:100F90008CB1089586EB90E0EFDF8DED90E0ECDF13
:100FA00083E091E0E9DF86E591E0E6DF0895FC016A
:100FB000208182B388B3281739F46630710524F094
:100FC00089EA91E0D9DF0895452B51F081E090E066
:100FD00002C0880F991F6A95E2F7282B2083089595
:100FE00081E090E002C0880F991F6A95E2F7809532
:100FF0008223808308958DEC91E0BEDF0895CF9227
:10100000DF92EF92FF920F931F93CF93DF93EC0148
:101010008B011092800310927F038130910521F59E
:10102000FB01C080D18055EAE52E52E0F52EC0E0EC
:10103000D0E0F70100811181C801B60188D1801785
:10104000910741F4FE01EE0FFF1FE158FC4F918321
:101050008083219682E090E0E80EF91E9DEAE91671
:1010600092E0F90631F76AC0823091050CF444C071
:10107000FB01E080F180C7016BED71E05FD100976B
:1010800059F57E010894E108F108EE0CFF1CE00E12
:10109000F11E0091AD021091AE02F70160817181E5
:1010A000C80155D18017910719F0C0E0D0E006C003
:1010B0009093800380937F03C1E0D0E00091AF0262
:1010C0001091B002F70160817181C80140D19C018B
:1010D0008017910799F507C0C70164EE71E02ED122
:1010E000009779F209C0FE01EE0FFF1FE158FC4F97
:1010F00031832083219622C08091A5029091A6027F
:101100009093800380937F038091A7029091A8021F
:1011100090938203809381038091A9029091AA0207
:1011200090938403809383038091AB029091AC02EF
:101130009093860380938503C4E0D0E0CC0FDD1F3D
:10114000C158DC4F198218828FE793E0DF91CF916D
:101150001F910F91FF90EF90DF90CF900895AF9285
:10116000BF92CF92DF92EF92FF920F931F93CF9394
:10117000DF935C016B017B01C0E0D0E096C0F7011A
:1011800000811181C8016FEE71E0D8D0009789F419
:1011900084EF91E0F1DE8EEF91E0EEDE82E092E00E
:1011A000EBDE86E192E0E8DE8AE192E0E5DEF2DE67
:1011B00077C0C8016DE172E0C1D0009731F483E2DD
:1011C00092E0DADE88E292E06AC0C8016BED71E07D
:1011D000B5D0009739F0C80164EE71E0AFD0009748
:1011E00009F054C08E010F5F1F4F0A151B050CF04C
:1011F0004AC0CC0FDD1FCC0DDD1D8881998164EEC6
:1012000071E09CD0F82EE92EF801EE0FFF1FEC0DD7
:10121000FD1DC081D181CE016CE272E08FD00097BC
:10122000C1F0CE0163E372E089D0009719F4C8E3FE
:10123000D0E011C08AE392E09FDE83E392E09CDE7F
:1012400081E492E099DE8CE292E096DE89E492E01D
:1012500016C0C2E3D0E0F8013196EA15FB056CF444
:10126000EE0FFF1FEC0DFD1D8081918130D0BC0180
:10127000CE014F2D5E2D9BDE1CC085E592E07CDE0D
:1012800021E030E018C083E792E0F9CF8BE892E0EC
:1012900073DEF701808191816FDE86E992E06CDE7A
:1012A000219682E090E0E80EF91ECA15DB050CF4E9
:1012B00066CF20E030E0C901DF91CF911F910F91FF
:1012C000FF90EF90DF90CF90BF90AF900895FC011A
:1012D00088279927E89421912032E9F3293010F0EA
:1012E0002E30C8F32B3239F02D3231F4689403C01C
:1012F00048D0820F911D219120532A30C8F31EF44B
:10130000909581959F4F0895FB01DC0102C00190EB
:101310000D9241505040D8F708956817790768F446
:10132000FB01DC01E40FF51FA40FB51F02C0029002
:101330000E9241505040D8F70895E6CFFB01DC01F2
:101340008D91019080190110D9F3990B0895FB013B
:1013500051915523A9F0BF01DC014D914517411171
:10136000E1F759F4CD010190002049F04D9140156D
:101370004111C9F3FB014111EFCF81E090E00197EA
:1013800008957AE0979F902D879F802D910D1124CD
:101390000895AEE0B0E0EEECF9E0A5C20D891E893B
:1013A0008F89988D97FF02C080E090E801979E8317
:1013B0008D831A83098386E08C839E01255E3F4FCF
:1013C000CE010196698D7A8DA90111D04D815E8182
:1013D00057FD0AC02F813885421753070CF49A0134
:1013E000020F131FF80110822E96E4E098C2ABE0C2
:1013F000B0E0ECEFF9E069C23C012B015A01FC01BD
:1014000017821682838181FD03C06FEF7FEFB9C120
:101410009AE0892E1E010894211C311CF3012381BE
:10142000F20123FD859123FF81912F01882309F487
:10143000A5C1853239F423FD859123FF81912F01C8
:10144000853221F490E0B301B6D1E8CF982FFF2484
:10145000EE249924FFE1FF15D0F09B3269F09C3215
:1014600028F4903259F0933291F40EC09D3249F035
:10147000903369F441E024C052E0F52A84E0F82A70
:1014800028C098E0F92A25C0E0E1FE2A22C0F7FC36
:1014900029C0892F80538A3070F4F6FE05C0989CCD
:1014A000902C1124980E15C0E89CE02C1124E80E15
:1014B000F0E2FF2A0EC09E3229F4F6FC5FC140E440
:1014C000F42A07C09C3619F450E8F52A02C0983671
:1014D00049F4F20123FD959123FF91912F01992366
:1014E00009F0B8CF892F8554833018F080528330AB
:1014F00038F444E050E0A40EB51E5FE359830FC0FA
:10150000933631F0933779F0933509F052C01FC00C
:10151000F5018081898342E050E0A40EB51E61018F
:1015200001E010E011C0F501C080D180F6FC03C0DD
:101530006FEF7FEF02C0692D70E042E050E0A40E33
:10154000B51EC6012DD18C015FE7F52213C0F50150
:10155000C080D180F6FC03C06FEF7FEF02C0692D21
:1015600070E042E050E0A40EB51EC6010ED18C0121
:1015700050E8F52AF3FE06C018C080E290E0B301FF
:101580001AD1EA948E2D90E008171907B0F30DC018
:10159000F601F7FC8591F7FE81916F0190E0B301B0
:1015A0000AD1E110EA94015010400115110581F7AC
:1015B000E2C0943611F0993661F5F7FE08C0F501E6
:1015C000208131814281538184E090E00AC0F5019D
:1015D000808191819C01442737FD4095542F82E002
:1015E00090E0A80EB91E9FE6F92257FF09C050955A
:1015F0004095309521953F4F4F4F5F4FE0E8FE2AD1
:10160000CA01B901A1012AE030E001D1D82ED218D7
:101610003FC0953729F41F2D1F7E2AE030E01DC002
:101620001F2D197F9F3661F0903720F4983509F00F
:10163000A5C00FC0903739F0983709F09FC004C09B
:1016400028E030E00AC0106114FD146020E130E0B1
:1016500004C014FD166020E132E017FF08C0F50158
:10166000608171818281938144E050E008C0F5017E
:1016700080819181BC0180E090E042E050E0A40EC6
:10168000B51EA101C4D0D82ED2188FE7F82EF122B2
:10169000F6FE0BC05EEFF522D91438F4F4FE07C055
:1016A000F2FC05C08FEEF82202C01D2D01C0192DDD
:1016B000F4FE0DC0FE01ED0DF11D8081803319F4A3
:1016C00099EEF92208C01F5FF2FE05C003C08F2DFE
:1016D000867809F01F5F0F2DF3FC13C0F0FE0EC0DB
:1016E0001E1510F09D2C0AC09D2C9E0C911A1E2DCB
:1016F00005C080E290E0B3015ED01F5F1E15C8F305
:1017000004C01E1510F4E11A01C0EE2404FF0EC03F
:1017100080E390E0B3014FD002FF1BC001FD03C086
:1017200088E790E00EC088E590E00BC0802F8678B7
:1017300081F001FF02C08BE201C080E2F7FC8DE284
:1017400090E0B30138D005C080E390E0B30133D01E
:101750009A94D914C8F3DA94F101ED0DF11D80814A
:1017600090E0B30128D0DD20B1F705C080E290E021
:10177000B30121D0EA94EE20C9F750CEF30166817F
:101780007781CB012B96E2E1BCC0FC010590615052
:1017900070400110D8F7809590958E0F9F1F089587
:1017A000FC016150704001900110D8F78095909530
:1017B0008E0F9F1F08950F931F93CF93DF938C017C
:1017C000EB018B8181FF1BC082FF0DC02E813F8109
:1017D0008C819D812817390764F4E881F981019390
:1017E000F983E88306C0E885F985802F0995892B60
:1017F00031F48E819F8101969F838E8302C00FEF0B
:101800001FEFC801DF91CF911F910F910895FA0149
:10181000AA27283051F1203181F1E8946F936E7F2F
:101820006E5F7F4F8F4F9F4FAF4FB1E03ED0B4E020
:101830003CD0670F781F891F9A1FA11D680F791F61
:101840008A1F911DA11D6A0F711D811D911DA11D72
:1018500020D009F468943F912AE0269F1124301982
:10186000305D3193DEF6CF010895462F4770405D1D
:101870004193B3E00FD0C9F7F6CF462F4F70405DCC
:101880004A3318F0495D31FD4052419302D0A9F727
:10189000EACFB4E0A6959795879577956795BA9521
:1018A000C9F700976105710508959B01AC010A2EE7
:1018B00006945795479537952795BA95C9F7620FBE
:1018C000731F841F951FA01D08952F923F924F9262
:1018D0005F926F927F928F929F92AF92BF92CF92C0
:1018E000DF92EF92FF920F931F93CF93DF93CDB7C9
:1018F000DEB7CA1BDB0B0FB6F894DEBF0FBECDBF41
:1019000009942A88398848885F846E847D848C8411
:101910009B84AA84B984C884DF80EE80FD800C811A
:101920001B81AA81B981CE0FD11D0FB6F894DEBFFD
:0C1930000FBECDBFED010895F894FFCF6D
:10193C00B6021B5B2564441B5B256443001B5B25C3
:10194C006443001B5B256444001B5B4B001B5B4426
:10195C00201B5B44000A0D004552524F523A746FE3
:10196C006B656E7320746F6F206D7563680A0D0064
:10197C000020001B5B33326D4952696E203E1B5BAD
:10198C00306D2000A30055736520544142206B65D7
:10199C007920666F7220636F6D706C6574696F6E01
:1019AC000A0D436F6D6D616E643A0A0D0009636C2C
:1019BC006561722020202020202020202020202043
:1019CC0020202D20636C6561722073637265656ED7
:1019DC000A0D00097365745F706F727420706F72FA
:1019EC00742070696E2020202D20736574203120A6
:1019FC00706F72745B70696E5D2076616C75652CAE
:101A0C0020737570706F7274206F6E6C79202770F4
:101A1C006F72745F622720616E642027706F72741E
:101A2C005F64270A0D0009636C6561725F706F72E9
:101A3C007420706F72742070696E202D2073657421
:101A4C00203020706F72745B70696E5D2076616CF3
:101A5C0075652C20737570706F7274206F6E6C7955
:101A6C002027706F72745F622720616E642027706C
:101A7C006F72745F64270A0D006F6E6C7920302EC4
:101A8C002E352070696E20617669616C61626C65BF
:101A9C0020666F7220504F5254420A0D005E432054
:101AAC0063617463686564210A0D007365745F700B
:101ABC006F727400636C6561725F706F7274006832
:101ACC00656C70006D6963726F726C207600312EDC
:101ADC003100206C69627261727920415652204447
:101AEC00454D4F207600312E30000A0D00636C6599
:101AFC006172001B5B324A001B5B4800706F727492
:101B0C005F6400706F72745F62006F6E6C79202777
:101B1C00002720616E642027002720737570706F7A
:101B2C0072740A0D00737065636966792070696E52
:101B3C00206E756D6265722C207573652054616220
:101B4C000A0D007370656369667920706F72742C6E
:101B5C0020757365205461620A0D00636F6D6D61B1
:101B6C006E643A20270027204E6F7420666F756EC6
:101B7C00642E0A0D00EF011D02DB01E40133022C7F
:021B8C00020055
:00000001FF
