:100000000CC027C026C025C024C023C022C021C0E8
:1000100020C01FC01EC01DC01CC011241FBECFE5C4
:10002000D2E0DEBFCDBF12E0A0E6B0E0E8EFF9E13C
:1000300003C0C89531960D92A43AB107D1F713E0E9
:10004000A4EAB2E001C01D92A935B107E1F702D0E0
:10005000D1CCD6CF0F931F937BD780916000909126
:10006000610062EB77E068D0809160009091610060
:1000700061EA78E05BD0809160009091610061EF6F
:1000800077E04ED0009160001091610075D7682F25
:10009000C80170E077D3F6CFCF93DF93EC0140E057
:1000A00050E020E030E002C02F5F3F4FFE01E20F42
:1000B000F31FE459FF4F8081882321F42617370767
:1000C0009CF32AC0261737073CF5FA01EE0FFF1FF5
:1000D000EC0FFD1FEF56FF4F24593F4FDE01A20FDB
:1000E000B31F2C563040B183A0834F5F5F4F483021
:1000F00051051CF04FEF5FEF0FC0FD0102C02F5FF5
:100100003F4F8081882329F0319626173707BCF3AB
:1001100003C02617370754F2CA01DF91CF91089523
:10012000FC01ED55FF4F718360830895FC01EF558D
:10013000FF4F718360830895CF93DF93FC0184594F
:100140009F4FDC0181E2ED0119928A95E9F784E67F
:10015000EF0119928A95E9F7EC59FF4F119211922C
:100160001192119211821082B59611921192118200
:10017000108272961192119211821082F9978091D9
:10018000B4009091B50091838083FB967183608366
:10019000DF91CF910895AF92BF92CF92DF92EF920D
:1001A000FF920F931F93CF93DF937C016B01FC01B0
:1001B000EC59FF4FA081B1819D01C90120E030E0E1
:1001C0000AC001968E0F911D8436910514F0845655
:1001D00090402F5F3F4FF701E80FF91FE081EE23BA
:1001E00081F7F701E859FF4F452BE1F50190F081C8
:1001F000E02D2E173F070CF48CC0B9016150704000
:10020000ED010AC02196C80FD91FC436D10514F0DC
:10021000C456D040615070405701AC0EBD1ED50190
:100220004C91442309F475C0842F90E06E177F072A
:1002300049F77DC0219697012C0F3D1F219747C09C
:1002400003E610E00C1B1D0B219697012C0F3D1FA0
:100250002197C601B901A8014AD8A601400F511F34
:10026000F50149C080819181181619060CF051C022
:10027000BC01615070407183608384E690E0E80EB9
:10028000F91ED701CD91DC91ECE9FFEFEE0EFF1ED8
:10029000C90109C02196C40FD11DC436D10514F07F
:1002A000C456D0400197F701EC0FFD1F4081442355
:1002B00019F08617970771F7CE01840F911D9E01E3
:1002C0002F5F3F4F8436910534F42E0D3F1DC6013C
:1002D000B90150E017C003E610E00C1B1D0B2E0DFA
:1002E0003F1DC601B901A80102D8A601400F511F48
:1002F000F701EC0FFD1F208130E0201B310BCA01FC
:10030000B701A901F4D7CE0DDF1D8881282F30E079
:1003100002C020E030E0C901DF91CF911F910F9121
:10032000FF90EF90DF90CF90BF90AF90089528E6B8
:1003300030E0E20EF31E6F5F7F4FD7016D937C9329
:10034000E8E9FFEFEE0EFF1E8C0F9D1F843691052E
:100350000CF470CF75CF0F931F93DF93CF93CDB76E
:10036000DEB760970FB6F894DEBF0FBECDBF8C012D
:10037000DE01119680E1FD0111928A95E9F71616CA
:10038000170614F58DB79EB708970FB6F8949EBF61
:100390000FBE8DBF2DB73EB72F5F3F4FEDB7FEB7F6
:1003A000B283A18380E190E0D90113969C938E9350
:1003B000129782E690E015969C938E931497179669
:1003C0007C936E93169728C06115710571F18DB7F6
:1003D0009EB708970FB6F8949EBF0FBE8DBF2DB77E
:1003E0003EB72F5F3F4FEDB7FEB7B283A18380E1E9
:1003F00090E0D90113969C938E93129788E690E033
:1004000015969C938E93149788279927861B970B94
:1004100017969C938E931697BDD7EDB7FEB7389677
:100420000FB6F894FEBF0FBEEDBF0B551F4FD8019E
:10043000ED91FC91CE010196099560960FB6F89466
:10044000DEBF0FBECDBFCF91DF911F910F910895F9
:10045000EF92FF920F931F93DF93CF93CDB7DEB749
:1004600060970FB6F894DEBF0FBECDBF8C018DB77D
:100470009EB70A970FB6F8949EBF0FBE8DBFEDB71B
:10048000FEB731967E010894E11CF11CADB7BEB7F2
:100490001296FC92EE92119780E190E09383828312
:1004A0008EE690E0958384838AE290E0978386834A
:1004B00087E090E0918780876DD78DB79EB70A96C9
:1004C0000FB6F8949EBF0FBE8DBF0B551F4FD801BE
:1004D000ED91FC91C701099560960FB6F894DEBFC7
:1004E0000FBECDBFCF91DF911F910F91FF90EF9085
:1004F00008953F924F925F926F927F928F929F9258
:10050000AF92BF92CF92DF92EF92FF920F931F9321
:10051000DF93CF9300D0CDB7DEB75C018B012A010A
:1005200035EAE32EF12CE80EF91ED701ED91FC918E
:1005300089E790E0099519821A8204591F4F6501D5
:10054000C00ED11E0C5610402DE8822E912C8A0C24
:100550009B1C90E2392E3E010894611C711C10C056
:10056000F60180818983882309F43982D701ED91CE
:10057000FC91C30109950F5F1F4F0894C11CD11C4A
:10058000F401808191810817190754F3C50160DFD8
:10059000C501B201E0DE0F900F90CF91DF911F9166
:1005A0000F91FF90EF90DF90CF90BF90AF909F9012
:1005B0008F907F906F905F904F903F9008950F9332
:1005C0001F93CF93DF93EC01AB01BC0164597F4FC4
:1005D000E2DD0097A9F0C357DF4F99838883CD5898
:1005E000D0408E0101571F4FF80191838083CE01C7
:1005F0002FDFF80140815181CE0160E070E079DFAA
:10060000DF91CF911F910F910895EF92FF920F9379
:100610001F93CF93DF93EC014FE8E42EF12CE80E0B
:10062000F91EF70180819181181619068CF5CB55BA
:10063000DF4FE881F981C55AD0408DE790E00995F8
:10064000F70180819181BC0164597F4F6C0F7D1F40
:100650008E0103571F4FF801408151814F5F5F4F5B
:10066000481B590B85599F4F8C0F9D1F4BD6F70187
:1006700080819181019791838083F80180819181AC
:10068000C80FD91FC459DF4F188201979183808307
:10069000DF91CF911F910F91FF90EF900895CF922E
:1006A000DF92EF92FF920F931F93CF93DF93EC01B2
:1006B0006B017A01C357DF4F48815981CD58D04033
:1006C000C701840F951F81971CF020E030E050C0D7
:1006D0008E0101571F4FD8018D919C919701280FD2
:1006E000391F24593F4FBC0164597F4F6C0F7D1F48
:1006F000481B590BCE01820F931F04D640E050E0F7
:10070000B8011CC0FE01E40FF51FDB012D913C91E7
:10071000E20FF31FE459FF4FD601A40FB51F8C91D0
:100720008083FA01E20FF31FEC0FFD1FE459FF4F26
:100730008081803209F410824F5F5F4F4E155F0554
:100740000CF3F801808191818E0D9F1D9183808330
:10075000FE01E357FF4F808191818E0D9F1D918394
:100760008083C80FD91FC459DF4F188221E030E0C1
:10077000C901DF91CF911F910F91FF90EF90DF9012
:10078000CF9008954F925F926F927F928F929F9237
:10079000AF92BF92CF92DF92EF92FF920F931F938F
:1007A000DF93CF9300D0CDB7DEB76C017A83698336
:1007B0008091A4029091A502892B09F48DC0298112
:1007C0002B3519F481E090E050C08091A602909101
:1007D000A7028130910509F053C0213421F4C601EC
:1007E00060E070E005C0223429F4C60161E070E0E9
:1007F000E6DE8BC32334F9F4860101571F4F2DE841
:1008000030E0C20ED31ED8012D913C91F6018081BB
:10081000918143E75FEFC40ED51E281739070CF00E
:1008200074C3C60161E070E096DDD8018D919C91A2
:10083000119701964EC02434A1F4860101571F4F31
:10084000F80180819181181619060CF05EC3C6016B
:100850006FEF7FEF80DDD8018D919C91119701970B
:1008600038C0273339F482E090E09093A702809358
:10087000A6025BC3283309F058C383E090E0F5CFAC
:100880002E3709F052C38230910551F4C601E0DDE4
:10089000EFE8F0E0CE0EDF1ED6011D921C9235C3AC
:1008A000039709F042C3860103571F4F8FE8E82ED4
:1008B000F12CEC0CFD1CF80160817181D7018D9148
:1008C0009C91681B790BC60146DDF80180819181FE
:1008D000D7018D939C9319C389819A818A309105A0
:1008E00009F440C08B309105ECF48530910509F492
:1008F00049C2863091054CF48130910509F45BC200
:100900008230910509F0D8C27FC28830910509F480
:10091000C3C2893091050CF028C18630910509F0D9
:10092000CBC253C28031910509F483C28131910554
:1009300064F48D309105B1F08E30910509F488C2D0
:100940008B30910509F0B8C208C28B31910509F4CA
:10095000F0C18F37910509F49FC28531910509F0E7
:10096000ABC2F1C1E5EAF0E0CE0EDF1ED601ED919B
:10097000FC9185E890E00995E8EEFFEFCE0EDF1ED2
:10098000D601ED90FC90E3E7FFEFCE0EDF1E1E14C4
:100990001F040CF08CC0D601A459BF4FB6016C598E
:1009A0007F4F16E6A12EB12CAC0CBD1C05C08456A1
:1009B0009040FB0191838083FB0140815181F601CE
:1009C000E40FF51F1081112309F4ADC2F501208158
:1009D00031812417350724F0CA018D599F4F02C079
:1009E000CA010197821B930BE816F9060CF092C21C
:1009F00026E630E0C20ED31EF601808191812AE9FD
:100A00003FEFC20ED31E03E610E0081B190B019640
:100A1000E016F1063CF49601280F391FC901BD010B
:100A2000A70112C09601280F391FC901BD01A801F5
:100A30005ED4F701E01BF10B980124593F4F2C0DB8
:100A40003D1DC601B901AF0152D4D601AA59BF4F0D
:100A50008D919C911197F601E80FF91FE082A70193
:100A6000480F591FCA01019611969C938E938436A4
:100A7000910524F0435650404D935C9346E650E078
:100A8000C40ED51ED601ED91FC912AE93FEFC20EAE
:100A9000D31EEC0DFD1D108248E650E0C40ED51E9D
:100AA000D6011D921C92E8E9FFEFCE0EDF1E2DE865
:100AB00030E0C20ED31ED6016D917C91E3E7FFEFCB
:100AC000CE0EDF1EC601E8DAFFEF8F3F9F0779F4F5
:100AD00025EA30E0C20ED31ED601ED91FC912BE544
:100AE0003FEFC20ED31E88E890E0099514C0181697
:100AF00019068CF441EA50E0C40ED51ED601ED91E2
:100B0000FC912FE53FEFC20ED31E309721F0B601C6
:100B10006F567F4F0995F601EB55FF4F4AE650E0BF
:100B2000C40ED51E0190F081E02DD6018D919C91CF
:100B30000995E3E2F0E0CE0EDF1ED6011D921D9274
:100B40006D011D921C92E1E7FFEFCE0EDF1EC60184
:100B500084599F4FFC0181E2DF011D928A95E9F7DC
:100B6000E8E6F0E0CE0EDF1E2CC1E3EAF0E0CE0EA8
:100B7000DF1ED6018D919C91EDE5FFEFCE0EDF1EBD
:100B8000892B09F4D2C1860101571F4FD8016D91FD
:100B90007C91C60181DA2C01D801ED91FC91EC0D1C
:100BA000FD1DE559FF4F8081882371F4F201EE0F9E
:100BB000FF1FEC0DFD1DEF56FF4F80EA90E0918383
:100BC00080830894411C511CB6016F567F4FE3EAA5
:100BD000F0E0CE0EDF1ED601ED91FC912DE53FEF4A
:100BE000C20ED31EC20109955C01DC012D913C911E
:100BF00011972115310509F498C112968D919C9198
:100C00001397892B29F000E010E021E030E02DC09F
:100C1000D9010D900020E9F78D0101501040021B11
:100C2000130B50C0E00FF11F9081F9013197EE0FC7
:100C3000FF1FEA0DFB1D0190F081E02DE00FF11F79
:100C40008081981711F4992371F4E5EAEE2EF12CC6
:100C5000EC0CFD1CD701ED91FC9185E890E0099525
:100C60003501470119C00F5F1F4FF901EE0FFF1F3C
:100C7000EA0DFB1D0190F081E02D309799F62F5F72
:100C80003F4FF3CFD401ED91FC910995D401ED9143
:100C9000FC9181EA90E00995F301819191913F01E6
:100CA000009781F7D701ED91FC9185E890E00995D7
:100CB000F601E659FF4FD7012D913C91808191813A
:100CC000F90109950115110531F1F2013197EE0F86
:100CD000FF1FEC0DFD1DEF56FF4FA081B181FD01FF
:100CE00001900020E9F73197EA1BFB0BD5016D91CC
:100CF0007C916E0F7F1F0E1B1F0BC601A801CFDC5E
:100D0000F50182819381892B31F4C60161EA70E09B
:100D100041E050E0C4DCC6019BDB2FE830E0C20EAE
:100D2000D31ED6014D915C91E1E7FFEFCE0EDF1EA1
:100D3000AFC081E090E09093A5028093A402F5C03B
:100D4000C60163DC03C0860101571F4FD8014D91D6
:100D50005C9114161506A4F39BC0E5EAF0E0CE0EF4
:100D6000DF1ED601ED91FC9189E790E00995EAEE4E
:100D7000FFEFCE0EDF1ED6018D919C91F60192936E
:100D80008293D3C0860103571F4F5FE8E52EF12CF5
:100D9000EC0CFD1CD8016D917C91F7018081918153
:100DA000681B790BC601D7DAD8018D919C91F701A8
:100DB00091838083BAC0C6014BDB2FE830E0C20EBE
:100DC000D31ED6011D921C92B0C0860101571F4F41
:100DD000EDE8F0E0CE0EDF1ED8012D913C91F6013A
:100DE0008081918143E75FEFC40ED51E2817390734
:100DF0000CF09BC0C60161E070E0ADDAD8018D91C6
:100E00009C911197019612C0860101571F4FF8015E
:100E100080819181892B09F488C0C6016FEF7FEF33
:100E20009ADAD8018D919C91119701978D939C939B
:100E30007CC0B60164597F4FC60140E050E0ABD999
:100E4000009709F472C0EDE8F0E0CE0EDF1E0EC090
:100E5000B60164597F4FC60141E050E09CD900972C
:100E600009F463C02DE830E0C20ED31ED6018D9385
:100E70009C93E3E7FFEFCE0EDF1E860101571F4F65
:100E8000D8018D939C93C601E3DAF801408151812A
:100E9000C60160E070E037C0C601B7DB2FE830E084
:100EA000C20ED31ED6014D915C91E1E7FFEFCE0E4D
:100EB000DF1EC601BA0127C0809769F42DE830E033
:100EC000C20ED31ED6018D919C91E3E7FFEFCE0EAB
:100ED000DF1E892B51F1C601BE016F5F7F4F41E0DC
:100EE00050E0DDDB892B09F12FE830E0C20ED31E84
:100EF000D6014D915C91E1E7FFEFCE0EDF1EBA0106
:100F000061507040C601F5DA10C01092A50210922F
:100F1000A4020BC0CA010196810F911D8436910570
:100F20000CF045CD46CDE08263CD0F900F90CF9170
:100F3000DF911F910F91FF90EF90DF90CF90BF90C6
:100F4000AF909F908F907F906F905F904F9008959B
:100F500088E089B986E880BD88E18AB98FEF87BBD0
:100F600081BB0895FC0104C05D9BFECF8CB9319616
:100F700080818823C9F708955F9BFECF8CB10895C7
:100F800086EB90E0EFDF8DED90E0ECDF83E091E029
:100F9000E9DF86E591E0E6DF0895FC01208182B378
:100FA00088B3281739F46630710524F089EA91E096
:100FB000D9DF0895452B51F081E090E002C0880F01
:100FC000991F6A95E2F7282B2083089581E090E02D
:100FD00002C0880F991F6A95E2F78095822380836B
:100FE0000895CF92DF92EF92FF920F931F93CF93CA
:100FF000DF93EC018B011092500310924F0381306C
:10100000910521F5FB01C080D18057E9E52E52E022
:10101000F52EC0E0D0E0F70100811181C801B601D2
:101020008FD18017910741F4FE01EE0FFF1FE15BA6
:10103000FC4F91838083219682E090E0E80EF91EB8
:101040009FE9E91692E0F90631F76AC0823091050E
:101050000CF444C0FB01E080F180C7016DEC71E04D
:1010600064D1009759F57E010894E108F108EE0C6F
:10107000FF1CE00EF11E00919F021091A002F701EB
:1010800060817181C8015CD18017910719F0C0E0BF
:10109000D0E006C09093500380934F03C1E0D0E0AE
:1010A0000091A1021091A202F70160817181C80133
:1010B00047D19C018017910799F507C0C70166EDDC
:1010C00071E033D1009779F209C0FE01EE0FFF1FE6
:1010D000E15BFC4F31832083219622C080919702EF
:1010E000909198029093500380934F0380919902BE
:1010F00090919A02909352038093510380919B02A6
:1011000090919C02909354038093530380919D028D
:1011100090919E029093560380935503C4E0D0E0D3
:10112000CC0FDD1FC15BDC4F198218828FE493E086
:10113000DF91CF911F910F91FF90EF90DF90CF90B3
:101140000895AF92BF92CF92DF92EF92FF920F93EA
:101150001F93CF93DF935C016B017B01C0E0D0E074
:1011600096C0F70100811181C80161EE71E0DDD008
:10117000009789F486EE91E0F5DE80EF91E0F2DEF3
:1011800084EF91E0EFDE88E092E0ECDE8CE092E02C
:10119000E9DEF6DE77C0C8016FE072E0C6D00097E6
:1011A00031F485E192E0DEDE8AE192E06AC0C801B6
:1011B0006DEC71E0BAD0009739F0C80166ED71E0CE
:1011C000B4D0009709F054C08E010F5F1F4F0A156D
:1011D0001B050CF04AC0CC0FDD1FCC0DDD1D888136
:1011E000998166ED71E0A1D0F82EE92EF801EE0F9D
:1011F000FF1FEC0DFD1DC081D181CE016EE172E0BB
:1012000094D00097C1F0CE0165E272E08ED00097D5
:1012100019F4C8E3D0E011C08CE292E0A3DE85E2CD
:1012200092E0A0DE83E392E09DDE8EE192E09ADE22
:101230008BE392E016C0C2E3D0E0F8013196EA15E4
:10124000FB056CF4EE0FFF1FEC0DFD1D80819181FD
:1012500030D0BC01CE014F2D5E2D9FDE1CC087E437
:1012600092E080DE21E030E018C085E692E0F9CF20
:101270008DE792E077DEF7018081918173DE88E867
:1012800092E070DE219682E090E0E80EF91ECA1529
:10129000DB050CF466CF20E030E0C901DF91CF918F
:1012A0001F910F91FF90EF90DF90CF90BF90AF9084
:1012B0000895E82FF92F88279927E8942191203263
:1012C000E9F3293010F02E30C8F32B3239F02D32EB
:1012D00031F4689403C053D0820F911D21912053A3
:1012E0002A30C8F31EF4909581959F4F0895E62FFC
:1012F000F72FA82FB92F02C001900D9241505040F6
:10130000D8F708956817790778F4E62FF72FA82FF4
:10131000B92FE40FF51FA40FB51F02C002900E9263
:1013200041505040D8F70895E2CFE62FF72FA82F6D
:10133000B92F8D91019080190110D9F3990B08955F
:10134000E62FF72F51915523C9F06E2F7F2FA82F2D
:10135000B92F4D9145174111E1F769F48A2F9B2F61
:101360000190002051F04D9140154111C9F3E62F35
:10137000F72F4111ECCF81E090E001970895682F9D
:10138000792F880F991F880F991F860F971F880F35
:10139000991F0895AEE0B0E0EFECF9E001C30D89CC
:1013A0001E898F89988D97FF02C080E090E8019791
:1013B0009E838D831A83098386E08C832C2F3D2F97
:1013C000255E3F4F8C2F9D2F0196698D7A8D422F80
:1013D000532F13D04D815E8157FD0CC02F8138856E
:1013E0004217530714F4242F352F020F131FE02F39
:1013F000F12F10822E96E4E0EFC2ABE0B0E0E2E025
:10140000FAE0C0C2882E992E462E572EA42EB52E55
:10141000E82FF92F17821682838181FD03C06FEFB9
:101420007FEFEDC12C2E3D2E0894211C311C9FE333
:10143000692EE82DF92D3381E42DF52D33FDC89566
:1014400033FF00803196802D4E2E5F2E882309F4C5
:10145000D2C1853251F433FDC89533FF00803196F7
:10146000802D4E2E5F2E853229F490E0682D792D47
:10147000E4D1DFCF982FFF24EE247724FFE1FF157E
:10148000D0F09B3269F09C3228F4903259F09332BC
:1014900091F40EC09D3249F0903369F441E02AC0C6
:1014A00052E0F52A84E0F82A2EC098E0F92A2BC0F1
:1014B000E0E1FE2A28C0F7FC33C0292F20532A3050
:1014C000A0F4F6FE08C0872D90E06AE070E048D2F4
:1014D000782E720E18C08E2D90E06AE070E040D237
:1014E000E82EE20EF0E2FF2A0EC09E3229F4F6FC4E
:1014F00082C140E4F42A07C09C3619F450E8F52A6A
:1015000002C0983669F4E42DF52D33FDC89533FFFC
:1015100000803196902D4E2E5F2E992309F0AECF8C
:10152000892F8554833018F08052833030F444E0A2
:1015300050E0A40EB51E698210C0933631F0933787
:1015400089F0933509F060C024C0EA2DFB2D80811D
:10155000898342E050E0A40EB51EC22CD32C01E0DA
:1015600010E014C0EA2DFB2DC080D180F6FC03C032
:101570006FEF7FEF02C0672D70E042E050E0A40EF5
:10158000B51E8C2D9D2D4DD1082F192F5FE7F5220B
:1015900016C0EA2DFB2DC080D180F6FC03C06FEF92
:1015A0007FEF02C0672D70E042E050E0A40EB51E50
:1015B0008C2D9D2D29D1082F192F50E8F52AF3FEE7
:1015C00007C01EC080E290E0682D792D36D1EA94E4
:1015D0008E2D90E008171907A8F312C0EC2DFD2DF1
:1015E000F7FCC895F7FE00803196802DCE2EDF2EB9
:1015F00090E0682D792D21D1E110EA94015010403E
:101600000115110559F7F4C0943611F0993691F58A
:10161000F7FE09C0EA2DFB2D2081318142815381E3
:1016200084E090E00CC0EA2DFB2D80819181282F71
:10163000392F442737FD4095542F82E090E0A80EC3
:10164000B91E9FE6F92257FF09C050954095309585
:1016500021953F4F4F4F5F4FE0E8FE2A952F842F93
:10166000732F622F422D532D2AE030E015D1D82E52
:10167000D21843C0953729F41F2D1F7E2AE030E091
:101680001DC01F2D197F9F3661F0903720F49835CB
:1016900009F0B1C00FC0903739F0983709F0ABC0EE
:1016A00004C028E030E00AC0106114FD146020E19D
:1016B00030E004C014FD166020E132E017FF09C0DD
:1016C000EA2DFB2D608171818281938144E050E09D
:1016D0000AC0EA2DFB2D80819181682F792F80E04F
:1016E00090E042E050E0A40EB51E422D532DD4D020
:1016F000D82ED2188FE7F82EF122F6FE0BC05EEF3F
:10170000F522D71438F4F4FE07C0F2FC05C08FEEC2
:10171000F82202C01D2D01C0172DF4FE0EC0EC2FC3
:10172000FD2FED0DF11D8081803319F499EEF92222
:1017300008C01F5FF2FE05C003C08F2D867809F038
:101740001F5F0F2DF3FC14C0F0FE0FC01E1510F02C
:101750007D2C0BC07D2C7E0C711A1E2D06C080E2E4
:1017600090E0682D792D69D01F5F1E15C0F304C06D
:101770001E1510F4E11A01C0EE2404FF0FC080E32F
:1017800090E0682D792D59D002FF1DC001FD03C0E6
:1017900088E790E00EC088E590E00BC0802F867847
:1017A00091F001FF02C08BE201C080E2F7FC8DE204
:1017B00090E0682D792D41D006C080E390E0682D3F
:1017C000792D3BD07A94D714C0F3DA94E22DF32D1F
:1017D000ED0DF11D808190E0682D792D2ED0DD205A
:1017E000A1F706C080E290E0682D792D26D0EA941A
:1017F000EE20C1F71ECEE82DF92D66817781862F68
:10180000972F2B96E2E1DAC0E82FF92FC895319691
:10181000615070400110D0F7809590958E0F9F1FFA
:101820000895E82FF92F6150704001900110D8F70A
:10183000809590958E0F9F1F08950F931F93CF93C0
:10184000DF93082F192FC62FD72F8B8181FF1BC045
:1018500082FF0DC02E813F818C819D812817390721
:1018600064F4E881F9810193F983E88306C0E8858F
:10187000F985802F0995892B31F48E819F810196FE
:101880009F838E8302C00FEF1FEF802F912FDF9178
:10189000CF911F910F910895E42FF52FAA2728309B
:1018A00069F1203199F1E8946F936E7F6E5F7F4FFD
:1018B0008F4F9F4FAF4FB1E041D0B4E03FD0670FA3
:1018C000781F891F9A1FA11D680F791F8A1F911DFC
:1018D000A11D6A0F711D811D911DA11D23D009F449
:1018E00068943F91062E000C3019000C000C301942
:1018F000305D3193CEF68E2F9F2F0895462F47707F
:10190000405D4193B3E00FD0C9F7F5CF462F4F703C
:10191000405D4A3318F0495D31FD4052419302D099
:10192000A9F7E9CFB4E0A695979587957795679540
:10193000BA95C9F70097610571050895262F372FCD
:10194000482F592F0A2E0694579547953795279576
:10195000BA95C9F7620F731F841F951FA01D0895C4
:101960005527002480FF02C0060E571F660F771F01
:101970006115710521F096958795009799F7952F38
:10198000802D08952F923F924F925F926F927F9297
:101990008F929F92AF92BF92CF92DF92EF92FF927F
:1019A0000F931F93CF93DF93CDB7DEB7CA1BDB0B2B
:1019B0000FB6F894DEBF0FBECDBF09942A883988D0
:1019C00048885F846E847D848C849B84AA84B984D7
:1019D000C884DF80EE80FD800C811B81AA81B981E3
:1019E000CE0FD11D0FB6F894DEBF0FBECDBFCA2FEC
:0819F000DB2F0895F894FFCFEE
:1019F800A8021B5B256443001B5B256444001B5B3A
:101A08002564441B5B256443001B5B4B001B5B4444
:101A1800201B5B44000A0D004552524F523A746F26
:101A28006B656E7320746F6F206D7563680A0D00A7
:101A38000020001B5B33326D4952696E203E1B5BF0
:101A4800306D2000A30055736520544142206B651A
:101A58007920666F7220636F6D706C6574696F6E44
:101A68000A0D436F6D6D616E643A0A0D0009636C6F
:101A78006561722020202020202020202020202086
:101A880020202D20636C6561722073637265656E1A
:101A98000A0D00097365745F706F727420706F723D
:101AA800742070696E2020202D20736574203120E9
:101AB800706F72745B70696E5D2076616C75652CF1
:101AC80020737570706F7274206F6E6C7920277038
:101AD8006F72745F622720616E642027706F727462
:101AE8005F64270A0D0009636C6561725F706F722D
:101AF8007420706F72742070696E202D2073657465
:101B0800203020706F72745B70696E5D2076616C36
:101B180075652C20737570706F7274206F6E6C7998
:101B28002027706F72745F622720616E64202770AF
:101B38006F72745F64270A0D006F6E6C7920302E07
:101B48002E352070696E20617669616C61626C6502
:101B580020666F7220504F5254420A0D007365740C
:101B68005F706F727400636C6561725F706F72741E
:101B78000068656C70006D6963726F726C20760026
:101B8800312E3100206C696272617279204156529F
:101B98002044454D4F207600312E30000A0D006359
:101BA8006C656172001B5B324A001B5B4800706FFA
:101BB80072745F6400706F72745F62006F6E6C792C
:101BC8002027002720616E64202700272073757066
:101BD800706F72740A0D007370656369667920709E
:101BE800696E206E756D6265722C20757365205460
:101BF80061620A0D007370656369667920706F729F
:101C0800742C20757365205461620A0D00636F6D32
:101C18006D616E643A20270027204E6F7420666F2E
:101C2800756E642E0A0D00E1010F02CD01D6012563
:041C3800021E020086
:00000001FF
